:020000040800F2
:10C40000402B0020C1C70008C9C70008CBC70008DF
:10C41000CDC70008CFC70008D1C700080000000042
:10C42000000000000000000000000000D3C700086A
:10C43000D5C7000800000000D7C70008691E010822
:10C44000DBC70008DBC70008DBC70008DBC7000844
:10C45000DBC70008DBC70008DBC70008DBC7000834
:10C46000DBC70008DBC70008DBC70008DBC7000824
:10C47000DBC70008DBC70008DBC70008DBC7000814
:10C48000DBC70008DBC70008DBC70008DBC7000804
:10C49000DBC70008DBC70008DBC70008DBC70008F4
:10C4A000DBC70008DBC70008DBC70008DBC70008E4
:10C4B000DBC70008DBC70008DBC70008DBC70008D4
:10C4C000DBC70008DBC70008DBC70008DBC70008C4
:10C4D000DBC70008DBC70008EF210108DBC7000845
:10C4E00065190108DBC70008DBC7000800F002F887
:10C4F00000F03CF80AA090E8000C82448344AAF1C2
:10C500000107DA4501D100F031F8AFF2090EBAE8BF
:10C510000F0013F0010F18BFFB1A43F00103184777
:10C52000909A0000B09A0000103A24BF78C878C1F1
:10C53000FAD8520724BF30C830C144BF04680C6029
:10C54000704700000023002400250026103A28BF71
:10C5500078C1FBD8520728BF30C148BF0B60704775
:10C560001FB508F0D6FC1FBD10B510BD08F07BFD4F
:10C570001146FFF7F5FF05F0ABFE08F099FD03B497
:10C58000FFF7F2FF03BC08F0A3FD000072B670478E
:10C5900062B6704780F30888704780F31088704750
:10C5A000EFF3108072B670470B49D1F800C04A68AB
:10C5B0005CF8043B1068184442F8040B8C4528BF13
:10C5C000A1F1DC0C8A4228BFA1F1DC02C1F800C055
:10C5D0004A6020F000407047D41E00200CB50020B7
:10C5E000019000906C48006840F480306A4908600F
:10C5F00000BF6948006800F4003000900198401CBA
:10C600000190009818B90198B0F5A06FF1D1624877
:10C61000006800F4003010B10120009001E000201B
:10C6200000900098012843D15C48006840F0100059
:10C630005A4908600846006820F003000860084670
:10C64000006840F002000860534840685249486062
:10C650000846406848600846406840F4806048608A
:10C660000846406820F47C1048600846406840F462
:10C67000E81048600846006840F08070086000BF1D
:10C680004548006800F000700028F9D04248406832
:10C6900020F00300404948600846406840F002002E
:10C6A000486000BF3C48406800F00C000828F9D101
:10C6B0000CBD10B5FFF792FF10BD10B536480068ED
:10C6C00040F0010034490860084640683449084099
:10C6D0003149486008460068324908402E490860E0
:10C6E0000846006820F4802008600846406820F46E
:10C6F000FE0048604FF41F008860FFF7DAFF2A4809
:10C7000000682A49086010BD10B5002100200022F1
:10C71000214B5B6803F00C0121B1042906D00829E4
:10C7200028D107E0224B234C236027E0204B214CEB
:10C73000236023E0184B5B6803F47010164B5B68B2
:10C7400003F48032022303EB904022B91A4B434397
:10C75000184C23600DE0104B5B6803F4003323B1E9
:10C76000154B4343134C236003E0114B4343114CDF
:10C77000236003E00E4B0F4C236000BF00BF064B4D
:10C780005B68C3F303130D4CE15C0A4B1B68CB40A1
:10C79000084C236010BD0000001002400020024041
:10C7A0000000FFF8FFFFF6FE0804000808ED00E0B7
:10C7B00000127A000000002000093D000400002063
:10C7C0000948804709480047FEE7FEE7FEE7FEE725
:10C7D000FEE7FEE7FEE7FEE7FEE7FEE70448054961
:10C7E000034A054B70470000BBC60008EDC40008B3
:10C7F000401F0020402B0020401F002030B5884201
:10C8000009D003460C4604E014F8015B03F8015B11
:10C81000521E002AF8D130BDF0B503468B420DD030
:10C820001D460C4608E015F8016B14F8017BBE426A
:10C8300001D00120F0BD521E002AF4D10020F9E7FA
:10C8400010B5034602E003F8011B521E002AFAD17C
:10C8500010BD70B588420AD203460C4604E014F8B5
:10C86000015B03F8015B521E002AF8D10DE08842FB
:10C870000BD983188C1806E0651E2C462E785D1E99
:10C880002B462E70521E002AF6D170BDF0B505461B
:10C890000C4616462F46314614E011F801CB387885
:10C8A00084450DD1012200E0521CA24204D211F8AD
:10C8B00001CBB85C8445F7D0A24201D1881AF0BD03
:10C8C0005B1E491C002BE8D10020F8E770B5044638
:10C8D00000260E70254610460AE010F8016B05F898
:10C8E000016B0E78761C0E70067806B970BD5B1E63
:10C8F000002BF2D100260E7000BFF7E70146B1F120
:10C90000883F01D1022070479A480068884201D1CF
:10C910000320F8E70020F6E770B505460C4660787E
:10C9200010B1012826D115E02946601D00F03AF922
:10C93000C0B2207000B922E0A078012802D18E4850
:10C94000007A00E00120E070D4F81100FFF7D6FF74
:10C95000207100BF22792178601DD4F804319847F6
:10C9600020B1E078401EC0B2E07010B101206070CC
:10C9700005E000BF05F070FA0020607000BF00BF46
:10C9800070BD10B57D497E48FFF7C6FF10BD01465A
:10C99000881E0C280FD2DFE800F0060E0E0A0E07E4
:10C9A0000E080E0B0E0C00BF00BF0320704700BF27
:10C9B00000BF0620FAE700BF00BF0020F6E7F8B589
:10C9C00004460D2660786F4901EB0010C568002011
:10C9D000009005F09DFC6178884252DD00BFA1788F
:10C9E0002868884242D12078022808D0207804287C
:10C9F00005D02078072802D02078092820D1A868FF
:10CA0000E0B16078604901EBC000807918B909266F
:10CA100003F04EFA29E0601CA96888470646022EFA
:10CA200023D12868CF2800D90126E07800909DF80E
:10CA30000020211D601DFFF70CFF16E00A2614E000
:10CA40002078052805D020780B2802D020780D28E2
:10CA50000AD1E86830B1621D6946601CEB689847EE
:10CA6000064602E00B2600E00C2609E005F1100066
:10CA7000296805460068814202D22868FF28AED99D
:10CA800000BF9DF80000401CE07026713046F8BDE4
:10CA90002DE9F8430746884614461E4604F1110363
:10CAA000621C41463846009601F019FB05460128F4
:10CAB00025D104F11100FFF782FF0546032D1ED09A
:10CAC00004F066FA607C022812D0607C05280FD042
:10CAD000607C072802D0607C0B2801D1012D07D093
:10CAE000607C092802D0607C0D2808D1012D06D079
:10CAF000607CFFF74CFF6074204601F02DF9BDE823
:10CB0000F8832DE9F04104460D461746A61D04F1B1
:10CB10001B03324629462046FFF7BAFF0120BDE835
:10CB2000F08110B54FF480621849194800F01EFAE0
:10CB30004FF480621749124800F018FA0020164995
:10CB400048708870AFF24500C1F8040100200B491D
:10CB50004870012088701148C1F80401104B03226D
:10CB60000021022002F076FD10BD0449C1F8040145
:10CB7000704700001800002090150020E4090020F4
:10CB8000CC000020445B0108A0160020DC0000203F
:10CB9000BC000020DC040020DC080020551A01083D
:10CBA00083C900082DE9F04106460C4600BF04B9D0
:10CBB0006AE000BF00BF204600F0EEF9012800D176
:10CBC00062E000BF06225049204600F0CDFA05463B
:10CBD000A56000BF204600F0DFF9012800D153E036
:10CBE00000BF1B2500BF204600F0FFF9A84200D27D
:10CBF0004AE000BFA0682844401E6168B0FBF1F223
:10CC000001FB12002168085C0830054400BFFF2DBD
:10CC100000D930E000BF00BF204600F0E6F9A8428E
:10CC200000D231E000BF00BFA0682844801F6168C7
:10CC3000B0FBF1F201FB12070623344A39462046C5
:10CC400000F0C0FA00B916E000BF00BF2A46314626
:10CC5000204600F00EFA00B916E000BF00BFA5F1B3
:10CC60000C0081B2B01D00F053F800B10CE000BF21
:10CC70002846BDE8F081A068801D6168B0FBF1F234
:10CC800001FB1200A06000BF0020F2E72DE9F04197
:10CC900005460E46174600BF05B933E000BF00BF8A
:10CCA00006221949284600F0AFF900B92AE000BF72
:10CCB000B9B2304600F02CF8044600BF3A4631467F
:10CCC000284600F0A1F900B91CE000BF00BF211206
:10CCD000284600F00CFA00B914E000BF00BFE1B232
:10CCE000284600F004FA00B90CE000BF00BF06229D
:10CCF0000649284600F088F900B903E000BF01208A
:10CD0000BDE8F0810020FBE7C0560108C6560108C7
:10CD100070B503460C460025002600210DE0585C46
:10CD200080EA0502154810F8120080EA060513484B
:10CD300030F812000612481C81B2A142EFDB46EA2D
:10CD4000052070BDF0B504460D46002600271612DA
:10CD5000D7B200210DE0605C80EA0603074810F8B6
:10CD6000130080EA0706054830F813000712481C34
:10CD700081B2A942EFDB47EA0620F0BDCC5601089C
:10CD8000014604E00A2000E0401E0028FCD10A1EF3
:10CD9000A1F10101F6D1704710B5044605E005F098
:10CDA00055FA40F2E630FFF7EBFF201EA4F1010434
:10CDB000F5D110BD2DE9F04104460D46174628E097
:10CDC000B4F5004F03D247F69C70854202D900208B
:10CDD000BDE8F08104F03F00C0F14000A84204D259
:10CDE00004F03F00C0F1400000E028460646F3B2E0
:10CDF000A1B23A46A02004F038F800B90BE0344460
:10CE0000AD1B37444FF0FF31A02004F01AF800B9F1
:10CE100001E0002DD4D100BF0DB90120D8E70022D8
:10CE20001146104600F07AF80020D1E72DE9F041D4
:10CE300004460D46174628E0B4F5004F03D247F6E6
:10CE40009C70854202D90020BDE8F08104F03F00CB
:10CE5000C0F14000A84204D204F03F00C0F14000FD
:10CE600000E028460646F3B2A1B23A46A02004F0FC
:10CE70002FF800B90BE03444AD1B37446FF070411C
:10CE8000A02003F0DEFF00B901E0002DD4D100BFE7
:10CE90000DB90120D8E700221146104600F03EF8F7
:10CEA0000020D1E72DE9F04104460D46174627E062
:10CEB000B4F5004F03D247F69C70854202D900209A
:10CEC000BDE8F08104F03F00C0F14000A84204D268
:10CED00004F03F00C0F1400000E028460646F3B2EF
:10CEE000A1B23A46A02004F023F800B90AE0344485
:10CEF000AD1B6FF07041A02003F0A3FF00B901E06B
:10CF0000002DD5D100BF0DB90120D9E7002211466F
:10CF1000104600F003F80020D2E7000070B5064686
:10CF20000C46154626B1012E09D0022E12D109E079
:10CF3000022002F0A9FF0C4802F0FEFB0BE005F016
:10CF4000ADF908E02DB12B4605220021084602F07C
:10CF500081FB00E000BF00BF24B1012C02D02046BD
:10CF600003F0BDF870BD0000930F0108034600BF39
:10CF70000BB90020704700BF19605A600020D860CC
:10CF800098600120F6E700BF00B9704700BF00219C
:10CF90008160C16000BFF8E70146D1E9020290421A
:10CFA00001D1012070470020FCE70146C868401C01
:10CFB0004A68B0FBF2F302FB13008A68904201D189
:10CFC000012070470020FCE70146D1E902029042AF
:10CFD00004D9D1E90202801A401E7047D1E901024A
:10CFE0001044CA68801A401EF7E70146D1E90220C2
:10CFF000904205D24A68C86810448A68801A70470F
:10D00000D1E90220801AFAE72DE9F04104460F46E3
:10D01000154600BF14B90020BDE8F08100BF00BF75
:10D020002046FFF7D1FFA84201D20020F4E700BF5D
:10D03000E1686068401AA84203D2E1686068401A5B
:10D0400000E028460646E2682168881832463946DC
:10D05000FFF7D4FBAA1BB9192068FFF7CFFBE068E4
:10D0600028446168B0FBF1F201FB1200E06001208E
:10D07000D2E72DE9F04104460E46154600BF14B92B
:10D080000020BDE8F08100BF00BF2046FFF784FF0D
:10D09000012801D10020F4E700BF00BF2046FFF7C0
:10D0A000A4FFA84201D20020EBE700BFD4E90101B0
:10D0B000401AA84203D2D4E90101401A00E02846F0
:10D0C0000746A268206881183A463046FFF796FB6B
:10D0D000EA1BF0192168FFF791FBA06828446168FA
:10D0E000B0FBF1F201FB1200A0600120C9E770B5AE
:10D0F00004460D4600BF0CB9002070BD00BF00BF44
:10D100002046FFF752FF012801D10020F5E700BFBC
:10D11000E16820684554E068401C6168B0FBF1F2AA
:10D1200001FB1200E0600120E7E710B503460C4662
:10D1300000BF0BB9002010BD00BF00BF1846FFF7AD
:10D140002BFF012801D10020F5E700BF996818687E
:10D15000405C20709868401C5968B0FBF1F201FBFC
:10D16000120098600120E6E7F0B503460C4615462C
:10D1700000BF0BB104B10DB90020F0BD00BF99682C
:10D18000002212E01868405CA65CB04205D1501C39
:10D190000246A84202D1521E0AE00022481C5E68E4
:10D1A000B0FBF6F706FB17000146D8688842E9D1C4
:10D1B00000BF58680844801A5E68B0FBF6F706FBAB
:10D1C0001700DAE7F0B504460D4600BF206800B14D
:10D1D0000AB90020F0BD00BF00210EE068186668A3
:10D1E000B0FBF6F706FB17002668365C12F8017BE9
:10D1F000BE4201D00020EDE7491C9942EED3012048
:10D20000E8E700001FB504467D4904F109020868FB
:10D21000611D02F063FC00284DD0B4F803000090BB
:10D220000D20005B0390206901907548001D006887
:10D23000B0F1082F1FD1552072490870724800883C
:10D24000402808D0802809D0B0F5807F09D0B0F5FB
:10D25000007F0CD108E06D4802900BE06C48029012
:10D2600008E06C48029005E06B48029002E06748D5
:10D27000029000BF05E0AA20624908704FF0082024
:10D280000290E07B694602F034FC98B1F1206349DA
:10D2900008700720A0705A48001F0088A4F80300F7
:10D2A00057480168C4F80510564801786172022099
:10D2B00004B010BD00BF0E20FAE710B5044604F01C
:10D2C000C5FF56480078F1280DD1E0784D4909781E
:10D2D000884206D1A278D21ED1B2A088A21D02F047
:10D2E0004FFC012010BD4D480078F22801D10120EB
:10D2F000F8E70020494908700320F3E770B50646B7
:10D300000C46154604F0A2FF44480078F1280BD1E2
:10D310002946204602F06CFC20B1F2203F490870FB
:10D32000012070BD0020FCE73C480078F22801D1C4
:10D330000120F6E70020394908700320F1E710B515
:10D34000044636480078F22822D1E079217A484014
:10D35000E071207AE17948402072E079217A4840F2
:10D36000E0710722115BD4F8030002F067FC01288A
:10D3700014D12348001F02F0B3FC78B102F0C3FCC3
:10D3800060B1F3202549087004F088FF012010BD2A
:10D3900022480078F32801D10120F8E700201F4936
:10D3A00008701220F3E710B50446A078012801D0D8
:10D3B0000F2010BDE078492802DBE0785D2801DD10
:10D3C0000E20F6E702F073FCE17888420CD0E0789A
:10D3D00002F043FC08B91220EBE7114B4FF44872FE
:10D3E0000021084602F036F90120E2E770B5064652
:10D3F0000C46154602F05BFC28700120207070BDC1
:10D400000404000815000020E0F7FF1F0084000856
:10D4100000C4000800980108002803081400002038
:10D420001714010810B5802221492248FFF79EFDFC
:10D4300010BD1CB5072269461E48FFF71AFE58B1F9
:10D44000DDF803309DF802209DF801109DF80000E2
:10D4500000F048FA01201CBDFFF7E4FF0020FAE7C6
:10D460002DE9FC4105460C4616461F46124800EBC6
:10D47000C500807918B9C72C16DDDD2C14DA8DF8BB
:10D4800000508DF801408DF80260CDF8037007223E
:10D4900069460848FFF7B8FDAFF26903C8220021CA
:10D4A000032002F0D7F801E002F002FDBDE8FC81A4
:10D4B000FC0A0020EC0A0020A016002038B5A520A8
:10D4C000009000BF4FF4005004466A460121FFF768
:10D4D000ADFCBC4890F8720670B140F27362002156
:10D4E000B848FFF7ADF900BF42F201000446B54A63
:10D4F00040F27361FFF79AFC38BD10B500BF42F2ED
:10D5000001000446AF4A40F27361FFF753FC00B9D3
:10D5100010BDAC4890F87206322801DDFFF7CEFF4F
:10D5200000BFF5E72DE9F04105460E4600241FE057
:10D5300004EB4410A349085CC0B104EB4410084458
:10D54000C07C1230C7B204EB44100A461044811C60
:10D550003A463046FFF760F940B904EB4410994968
:10D560000844407828700120BDE8F081601CC4B2F6
:10D57000944890F87206A042DADC0020F4E710B577
:10D58000034601221FE000210DE001EB41108D4C0C
:10D59000205C30B101EB411020444078904200D132
:10D5A00006E0481CC1B2874890F872068842ECDC5D
:10D5B00000BF844890F87206884202D11A70012098
:10D5C00010BD501CC2B2FE2ADDDB0020F8E7024687
:10D5D00000210EE001EB41107A4B185C38B101EBF1
:10D5E000411018444078904201D108467047481CC9
:10D5F000C1B2744890F872068842EBDCFF20F5E770
:10D60000704890F87206322801DB01207047002034
:10D61000FCE72DE9F04104460D46164604EB4410A4
:10D6200068490844C07C1230C7B204EB44100A4673
:10D630001044811C3A463046FFF7E0F82F70012075
:10D64000BDE8F0812DE9F04704460E4617461D4619
:10D65000A5F10209322C3DDC99F81300123000F0DC
:10D66000FF0804EB4411574A1144881C42462946DE
:10D67000FFF7C4F8012004EB4411524A505404EB64
:10D68000441011460844467000BF42F201002121B7
:10D6900001FB040A04EB44101146421821215046B4
:10D6A000FFF7C4FB9FB1474890F87206401C4549FC
:10D6B00081F8720600BF42F201014348414A801AD4
:10D6C00001EB000A404A01215046FFF7AFFB012061
:10D6D000BDE8F0870020FBE770B50446394890F8B4
:10D6E0007206401EA0423AD0364A92F87226521E66
:10D6F00002EB4212334BD11804EB4412D018212212
:10D70000FFF77CF800BF42F20100212101FB040574
:10D7100004EB44102B49421821212846FFF786FBD1
:10D72000284991F87216491E01EB4111254A8818C3
:10D7300021220021FFF784F800BF42F201012148B5
:10D7400090F87206401E212202FB001504EB4410E3
:10D750001C49421821212846FFF768FB15E004EB1D
:10D760004411184A881821220021FFF769F800BFE8
:10D7700042F20100212101FB040504EB4410114990
:10D78000421821212846FFF751FB0E4890F87206F7
:10D79000002814DD0B4890F87206401E094981F8F4
:10D7A000720600BF42F201010748064A801A0D18AE
:10D7B000054A01212846FFF739FB012070BD0020F2
:10D7C000FCE700007C0B0020EE11002010B5FFF7F5
:10D7D00094FE10BD10B5FFF771FE10BD10B50446E4
:10D7E000092C3AD2DFE804F039050B11171D232963
:10D7F0003100994201DA012010BD0020FCE7994276
:10D8000001DC0120F8E70020F6E7994201DD012064
:10D81000F2E70020F0E7994201DB0120ECE700206D
:10D82000EAE7994201D10120E6E70020E4E79942C6
:10D8300001D00120E0E70020DEE7994203DC9A42B4
:10D8400001DB0120D8E70020D6E7994201DC9A42AB
:10D8500001DA0120D0E70020CEE70020CCE7014626
:10D86000092916D2DFE801F015090F0D0B05071184
:10D870001300062070470520FCE70420FAE701208A
:10D88000F8E70220F6E70320F4E70820F2E7072094
:10D89000F0E70020EEE70346092B1ED2DFE803F095
:10D8A0001D05060A0B1D1D0F160000BF0868401C51
:10D8B000086014E000BF0868401E08600FE00868B8
:10D8C000401C08601068401E106008E00868401C9A
:10D8D00008601068401E106001E00020704700BF23
:10D8E0000120FBE72DE9FE4F05460E4617469846F8
:10D8F000002484E004EB44104549085C01287CD1F5
:10D90000012F79D14FF0000904EB44100844007A4C
:10D91000010604EB44103E4A1044C07901EB00417B
:10D9200004EB44101044807901EB002004EB441117
:10D930001144497900EB010904EB441011460844F5
:10D940008078A84257D104EB44100844C078B04214
:10D9500051D104EB44111144087943460022494651
:10D96000FFF73CFFE8B304EB441029490844007B6F
:10D97000010604EB4410264A1044C07A01EB004132
:10D9800004EB44101044807A01EB002004EB4411B6
:10D990001144497A00EB010904EB44101146084494
:10D9A000143004EB44111144C97C04EB4412184BAD
:10D9B0001A44927CCDE90021029004EB44119C466C
:10D9C000614491F80EC004EB44119A465144C97B5E
:10D9D0000CEB01218AB204EB44119C4661444B7C60
:10D9E00002E008E009E007E004EB44116144487BF1
:10D9F000494600F06AFA00E000BF601CC4B2044867
:10DA000090F87206A0423FF775AF0120BDE8FE8F87
:10DA10007C0B002010B50446012C02D1FFF7F0FD6D
:10DA200010BDFF20FCE770B504460D46012C03D164
:10DA30002846FFF7CCFD70BDFF20FCE730B503465C
:10DA40000C46012B18D100210BE001EB4110BE4D1B
:10DA5000285C20B101EB4110284440785054481C08
:10DA6000C1B2B94890F872068842EEDCB64890F828
:10DA700072062070012030BDFF20FCE72DE9F04147
:10DA800004460D4616461F46012C06D13A4631463D
:10DA90002846FFF7BEFDBDE8F081FF20FBE72DE93A
:10DAA000F04104460D4616461F46DDF81880012C4D
:10DAB00012D1FF2D03D1A44991F8721600E0294636
:10DAC000084643463A463146FFF7BCFD10B10120F7
:10DAD000BDE8F0810020FBE7FF20F9E770B50446C0
:10DAE000012C10D140F2736200219748FEF7A8FE86
:10DAF00000BF42F201000546934A40F27361FFF70E
:10DB000095F9012070BDFF20FCE770B505460C4675
:10DB1000012D07D1322C03DA2046FFF7DDFD70BD61
:10DB20000020FCE7FF20FAE770B504460D461646D4
:10DB3000012C04D131462846FFF7F4FC70BDFF20CC
:10DB4000FCE770B504460D46012C03D12846FFF7CB
:10DB500016FD70BDFF20FCE72DE9FC4107460C4691
:10DB6000224601A93846FFF7DFFFF0B93846FFF734
:10DB700051FF012802D11320BDE8FC8101A93846DC
:10DB8000FFF7DFFF012802D10126FF2501E0142065
:10DB9000F2E7334600949DF8042029463846FFF703
:10DBA0007EFF012801D01020E6E7A41E9DF80400A6
:10DBB00020700120E0E72DE9F84307460D461646A0
:10DBC0004FF0000929463846FFF72DFF8046FF2811
:10DBD00001D0002402E001244FF0FF0823462A462A
:10DBE000414638460096FFF75AFF81464846BDE851
:10DBF000F8832DE9F04104460D4616461F46294696
:10DC00002046FFF710FF8046FF2808D03B463246EB
:10DC100041462046FFF732FF0120BDE8F081002099
:10DC2000FBE72DE9F04107460E4614461D46FF2E40
:10DC300007D12A4621463846FFF700FF0120BDE8FC
:10DC4000F08131463846FFF7EEFE2870FF2802D0FB
:10DC500001202070F3E70020F1E770B505460C467F
:10DC6000FF2C03D12846FFF739FF70BD2146284617
:10DC7000FFF7D9FE0646FF2804D031462846FFF7B5
:10DC800044FFF2E70120F0E72DE9F04105460024CA
:10DC900000262D4890F8720610B90120BDE8F081E9
:10DCA0001FE004EB4410284908448078A84216D1AC
:10DCB00001260A4692F87226521E02EB42120B46C9
:10DCC000D11804EB4412D0182122FEF797FD1E480C
:10DCD00090F87206401E1C4981F8720601E0601C33
:10DCE000C4B2194890F87206A042DADC46B100BF0F
:10DCF00042F201000746144A40F27361FFF796F8BA
:10DD00000120CBE770B505460E46002400BF14E0A5
:10DD100004EB44100C490844C078A8420AD104EB33
:10DD200044100844D0F80500B04203D12046FFF764
:10DD3000D3FC02E0601CC4B200BF034890F8720636
:10DD4000A042E5DC012070BD7C0B002010B57049BD
:10DD5000012002F0DFF910BD70B5044601202070EB
:10DD60006B4809380068C4F80100694809384168FF
:10DD7000E160D4F8060066490939496888420AD149
:10DD800063480938407A401CC1B261480938417281
:10DD90002174604D1EE0607901281ADD267C5C4804
:10DDA0000938407A401CC1B259480938417221747F
:10DDB000584D207D00F1150221462846FEF766FFEA
:10DDC00020B9002203210220FFF7A8F82674524D43
:10DDD00000E0514D207D00F1150221462846FEF756
:10DDE00055FF80B94C48854205D1002202210846E2
:10DDF000FFF794F807E04748854204D10022032149
:10DE00000220FFF78BF870BDF0B5BFB005460E4697
:10DE100017466C4610222946601CFEF7EFFC3C4872
:10DE20000938407A401CC1B239480938417221741E
:10DE30000422314604F11100FEF7E0FCF278394685
:10DE40000DF11500FEF7DAFC2046FFF785FF3FB025
:10DE5000F0BDF0B585B004460D4616461F460120BC
:10DE60008DF808004FF08830CDF809000020ADF89B
:10DE70000D008DF800008DF801408DF802508DF8EE
:10DE800003603A46694601A8FFF7BEFF05B0F0BD42
:10DE9000F0B591B005460E4614461F4601208DF898
:10DEA00004008DF805508DF806608DF80740224675
:10DEB000394602A8FEF7A2FC201DC2B201AB002128
:10DEC0000846FFF7C6FF11B0F0BD2DE9F04786B058
:10DED00004460D4616461F46DDE90F9ADDF83880E8
:10DEE0008DF80C40CDF80D50ADF8116004208DF880
:10DEF00004008DF806808DF805708DF80790524665
:10DF000001A902A8FFF780FF06B0BDE8F087000076
:10DF100099150020BC000020CC0000202DE9F04124
:10DF200006460F46042506E0681E305CFF2800D038
:10DF300003E0681EC5B2002DF6DC00BF0024601EA1
:10DF400038601CE0305DFF2817D004F0E1F980460E
:10DF500010E0A8F10100C0B28046F84901EBC00012
:10DF6000005D315D884205D0012101FA08F1386871
:10DF700088433860B8F1000FEBD1601CC4B2AC42EA
:10DF8000E0DB2846BDE8F081024600210CE0EB48CA
:10DF90000830405C535C984204D0505CFF2801D0AC
:10DFA00000207047481CC1B20429F0DB0120F8E7CB
:10DFB00030B50546E248807F012808D1287902283B
:10DFC00005DB681DFFF7E0FF08B1012030BD00242C
:10DFD00024E0DB480A3000EB8400006830B1D84808
:10DFE0000A3000EB84000068401C00B914E0D5F84A
:10DFF0000B10D3480A3000EB84000068814208D03F
:10E00000D5F80510CE480A3000EB84000068814244
:10E0100001D10120DAE700BF601CC4B2052CD8DBB7
:10E020000020D3E730B50246002138E0C54800EBB8
:10E0300001100068D2F80B40A0422ED100230BE063
:10E04000C04800EB01100830C05CD47BA04201D175
:10E05000002030BD581CC3B2052BF1DBB94800EBE2
:10E060000110407B401CC0B2B64C04EB011460733D
:10E07000052490FBF4F504FB1500B24C04EB0114ED
:10E080006073D47BAF4800EB01100830AD4D05EB59
:10E0900001156D7B44550120DBE7481CC1B21429F2
:10E0A000C4DBA9480078401CC0B2A74C20701424DF
:10E0B00090FBF4F504FB1500A34C2070D07BA14C21
:10E0C000A14D2D7804EB05142072D2F80B409D4829
:10E0D0009D4D2D7800EB051004600120B9E72DE976
:10E0E000FC5F82468B4616461C460C9F306894495E
:10E0F0000968884208D030689449884204D0904822
:10E100000068401C002871D13046FFF78BFF10B922
:10E110000820BDE8FC9F3046FFF74AFF20B15A4671
:10E1200051468B48FEF770FF307901280BD1D6F8A5
:10E13000050083494968884201D00620E9E70020AC
:10E140008449086012E23079052807D1D6F8050025
:10E1500020B9D6F80B007F49086007E20020009044
:10E1600000BF7D48806840F001007B4988607B48A3
:10E17000006808607948001D00680860774808302A
:10E180000068086076480068086075480E300068CE
:10E190000860084600680090D6F80B006D490860DA
:10E1A00001A9701DFFF7BAFE8146DDE90010884025
:10E1B000019000988144019808B90720A9E73079B7
:10E1C000022832D1E2783946F81CFEF742FB0322DE
:10E1D000611C3846FEF712FBE078C01C00F0FF0817
:10E1E00000206070A070E070012519E0C4E10120FA
:10E1F000A8400199084088B1727A09F0FF012846C9
:10E2000002F098F850B1E178C81942463946FEF755
:10E21000F5FAE0783D54E0784044E070681CC5B2FF
:10E2200004F076F8A842E2DC9FE1307903282AD195
:10E2300000206070A070E07001251FE00120A84060
:10E2400001990840C0B1E078C319727A09F0FF0162
:10E25000284602F0D6F9E078385C68B1E07817F823
:10E260000080E2783A44511CE278D0194246FEF729
:10E27000F0FAE0784044E070681CC5B204F048F859
:10E28000A842DBDC71E1307904286CD1607890BB66
:10E29000E2783946F81CFEF7DCFA0322611C3846A6
:10E2A000FEF7ACFAE078C01C00F0FF0800206070B8
:10E2B000A070E070012519E00120A84001990840F4
:10E2C00090B1B6F8090026497E31098889B28842A2
:10E2D0000AD1E178C81942463946FEF78FFAE0784C
:10E2E0003D54E0784044E070681CC5B204F010F87A
:10E2F000A842E1DC39E1FFE704F00AF8401E61784A
:10E30000884201DA0E2004E76178012088400199F3
:10E31000084088B1B6F8090011497E31098889B2F0
:10E320008842AFD00E487E30008880B21D2803D1CD
:10E33000B6F809001E28A5D00E20EAE6A016002097
:10E3400090150020F01100201C000020424553547D
:10E35000CC0000201800002000300240E8F7FF1F2A
:10E3600082030008FFE73079062832D1E278394687
:10E37000F81CFEF76EFA0322611C3846FEF73EFADF
:10E38000E078C01C00F0FF0800206070A070E07012
:10E39000012519E00120A8400199084090B1B6F884
:10E3A0000900764901EBC501898888420AD1E178E4
:10E3B000C81942463946FEF721FAE0783D54E07824
:10E3C0004044E070681CC5B203F0A2FFA842E1DC43
:10E3D000CBE03079072832D1E2783946F81CFEF7D5
:10E3E00038FA0322611C3846FEF708FAE078C01CB0
:10E3F00000F0FF0800206070A070E070012519E0B7
:10E400000120A8400199084090B1B6F809005B4985
:10E4100001EBC501C97988420AD1E178C8194246A1
:10E420003946FEF7EBF9E0783D54E0784044E0707F
:10E43000681CC5B203F06CFFA842E1DC95E03079BE
:10E44000142858D1607898BBE2783946F81CFEF75A
:10E4500000FA0322611C3846FEF7D0F9E078C01CB0
:10E4600000F0FF0800206070A070E07001251AE045
:10E47000424850F83500D6F80510884211D1B6F858
:10E4800009003F49098889B288420AD1E178C81950
:10E4900042463946FEF7B2F9E0783D54E078404410
:10E4A000E070681CC5B203F033FFA842E0DC5CE01A
:10E4B000FFE703F02DFF401E6178884201DA0E204D
:10E4C00027E660782D4951F83000D6F805108842CB
:10E4D0000FD1B6F809002A49098889B2884244D088
:10E4E0002748008880B21D2803D1B6F809001E28ED
:10E4F0003BD00E200DE63079162834D1E27839462B
:10E50000F81CFEF7A6F90322611C3846FEF776F9DF
:10E51000E078C01C00F0FF0800206070A070E07080
:10E5200001251BE0154850F83500D6F80510884243
:10E5300012D1B6F80900114901EBC501898888425A
:10E540000AD1E178C81942463946FEF757F9E07812
:10E550003D54E0784044E070681CC5B203F0D8FE3A
:10E56000A842DFDC01E00520D3E500BFD6F80B00B0
:10E57000C6F805000120CCE50420CAE5A01600205D
:10E58000000400082DE9F8430446002706F0A6FD24
:10E590000746A0783841A0706946201DFFF7BEFCF1
:10E5A0000646F019C6B2A078032802DA0F20BDE8AB
:10E5B000F88303F0ADFE0146E078401C3844C0B259
:10E5C000814205DB207A401C3844C0B2102801DDAE
:10E5D0000E20ECE7A07A012828D1E07828B1E07875
:10E5E000FF2802D0207AFF2801D10E20DFE7E17852
:10E5F0000120884000990840B0B1A0780938E07245
:10E60000E07A20280EDA207A012802D1A078093891
:10E61000E072227AE07804F10B03314601F0A9FFA1
:10E62000C0B2C4E70F20C2E70720C0E7A07A0028E5
:10E630006DD1E078FF283FD1C6B9207AFF2802D1FA
:10E6400001F05CFC63E001250BE00120A84000998B
:10E65000084020B1227A3146284601F0EEFE681CBF
:10E66000C5B203F055FEA842EFDC50E001251EE0E4
:10E670000120A84000990840B8B1207AFF280FD1A6
:10E680004FF0000808E0E0784246314601F0D5FE40
:10E6900008F1010000F0FF08B8F1100FF3DB04E00F
:10E6A000227A3146284601F0C8FE681CC5B203F044
:10E6B0002FFEA842DCDC2AE0E178012088400099A6
:10E6C000084010B366B9207AFF2803D1E07801F042
:10E6D00090FE1CE0227AE078314601F0AEFE16E0B2
:10E6E000207AFF280BD1002506E0E0782A46314643
:10E6F00001F0A3FE681CC5B2102DF6DB07E0227AFC
:10E70000E078314601F099FE01E007204FE7012053
:10E710004DE7F8B504460E4615466946201DFFF73D
:10E72000FDFB0746A078032801DA0F20F8BDE0784A
:10E7300038B103F0EDFDE178884202DD207A10283F
:10E7400001DA0E20F2E7E1780120884000990840C4
:10E7500068B1227AE0782B46394601F052FF2878DA
:10E7600030703278691C2846FEF773F803E0002009
:10E7700030700720DAE70120D8E72DE9F843044696
:10E78000002706F0ABFC0746A0783844A070694625
:10E79000201DFFF7C3FB064646EA0700C6B2A07875
:10E7A000032802DA0F20BDE8F88303F0B1FDE17819
:10E7B000491C3944C9B2884205DB207A401C3844E0
:10E7C000C0B2102801DD0E20EDE7A07A012817D194
:10E7D000E07828B1E078FF2802D0207AFF2801D124
:10E7E0000E20E0E7E178012088400099084028B138
:10E7F000227AE078314601F029FD72E00720D2E765
:10E80000A07A00286DD1E078FF283FD1C6B9207AE0
:10E81000FF2802D101F0A2FB63E001250BE00120FB
:10E82000A8400099084020B1227A3146284601F0DC
:10E830009FFC681CC5B203F06BFDA842EFDC50E002
:10E8400001251EE00120A84000990840B8B1207AB7
:10E85000FF280FD14FF0000808E042463146284615
:10E8600001F086FC08F1010000F0FF08B8F1100F7C
:10E87000F3DB04E0227A3146284601F079FC681C7B
:10E88000C5B203F045FDA842DCDC2AE0E1780120B6
:10E8900088400099084010B366B9207AFF2803D158
:10E8A000E07801F040FB1CE0227AE078314601F08C
:10E8B0005FFC16E0207AFF280BD1002506E0E07807
:10E8C0002A46314601F054FC681CC5B2102DF6DB17
:10E8D00007E0227AE078314601F04AFC01E00720A7
:10E8E00061E701205FE7F8B504460D461646694624
:10E8F000201DFFF713FB0746A078032801DA0F203D
:10E90000F8BDE07838B103F003FDE178884202DD1C
:10E91000207A102801DA0E20F2E7E1780120884001
:10E920000099084040B101202870227AE0783946E9
:10E9300001F000FD307003E0002028700720DFE7C1
:10E940000120DDE710B5C4B02948447ABB208DF81A
:10E950001000284800788DF8110026480078401CE7
:10E96000244908702248007A0978884203DAFF2097
:10E970008DF81000022404A8B521CDE900140290FE
:10E980001B480123002201681846FFF79EFA44B095
:10E9900010BD10B500201749087015484289007A4B
:10E9A000811CAFF25F03012000F054FE10BD10B5D2
:10E9B000002002F0F9FB10BD3EB5002502F0FBFB84
:10E9C0000546002410E00A48007A401CC0B2B62177
:10E9D000CDE901050091064801230022016818468F
:10E9E000FFF773FA601CC4B2022CECDB3EBD0000E2
:10E9F000301300201E00002010B504466248007845
:10EA000008B1122010BD01205F490870D4F803003E
:10EA10005E490860072000594860E07A0872217B4F
:10EA20005A4841720D20015B58484181584B4FF4C0
:10EA30007A720021084600F00DFE0120E2E75348FB
:10EA4000006870475148007A704703460D200870EF
:10EA50004E48006810604D48406850604B48007A4E
:10EA600010724A48407A507248484089508146485E
:10EA7000007810730120704770B5044600254248A5
:10EA80000078012801D0122070BD02203E49087094
:10EA9000D4F803003D490860072000594860E07A37
:10EAA0000872217B394841720D20015B3748418152
:10EAB000012002F079FB374B41F2883200210846F1
:10EAC00000F0C8FD02F077FB05463048007A421C92
:10EAD00000212846FDF7B4FE0120D5E703460D20AE
:10EAE00008702A480068106028484068506027482D
:10EAF000007A10722548407A50722448408950812B
:10EB00002148007810730120704710B50446214B4E
:10EB100041F288320021084600F09CFDE078FF2891
:10EB200012D11948007802280ED11A4800F004FECC
:10EB3000FFF73DFF184B4FF47A720021084600F0B2
:10EB400089FD002010490870012010BD70B50646EF
:10EB50000C4615460120207002F02FFB2870012082
:10EB600070BD10B504460020074908700B4800F03E
:10EB7000E3FD012010BD0346012008700248007823
:10EB800010700120704700001D000020301300208D
:10EB900093E90008AFE90008B9E9000845E9000871
:10EBA00010B5002001F070F910BD10B5044601F059
:10EBB00068FA01F07DFDFEF709FEFEF733FC002246
:10EBC00007210220FEF7AAF9AFF22B034FF47A7265
:10EBD0000021084600F03EFD10BD70B5044600203F
:10EBE000087042F290700D7850530878801C0870BD
:10EBF000F74800680D7850510878001D0870F448F7
:10EC0000001D00680D7850510878001D08704FF005
:10EC10000060D0F800030D7850510878001D08708E
:10EC2000EB4BF43B05E01D780E78701C0870955591
:10EC30005B1C18785A2802DC18783028F3DA012097
:10EC400070BD10B50346987860B1E148001F0068B8
:10EC5000B3F80340A04205D0B3F803004FF6FF74A9
:10EC6000A04212D100200870D948001F00880C78FB
:10EC700010530878801C0870D54800680C78105133
:10EC80000878001D0870012010BD1220FCE710B5A7
:10EC90000446A078042801DCA07808B90F2010BD34
:10ECA000D4F80300CB490860042001F033FA08B916
:10ECB0001020F4E70120F2E70346C6480068106020
:10ECC00004200870012070470346C2484068106065
:10ECD000042008700120704710B50446E07805282C
:10ECE00001DCE07808B90F2010BDE078B94908725E
:10ECF0000831012001F00EFA08B91020F4E70120D4
:10ED0000F2E70346B348007A10700120087070479C
:10ED100070B50546A878192806DCA878052190FB6F
:10ED2000F1F201FB120008B10F2070BDA878052197
:10ED300090FBF1F0C6B200240EE004EB8401E81C65
:10ED4000405C28B104EB8401E81C405C052801DD2F
:10ED50000E20EAE7601CC4B2B442EEDB002410E0EF
:10ED600004EB8400401CE91C0A5804EB8401E81CF5
:10ED7000405C401E97490A3101EB80000260601C34
:10ED8000C4B2B442ECDB93490A31142001F0C2F959
:10ED900008B91020C9E70120C7E7F0B503460C46C3
:10EDA0000025D878FF2827D100202070002120E0FE
:10EDB00088480A3000EB81000068C0B185480A30FD
:10EDC00000EB81000068401C88B1481C05EB8506FB
:10EDD000905580480A3000EB8100066805EB8507F6
:10EDE000501CC6512078401D2070681CC5B2481CBC
:10EDF000C1B20529DCDB13E0D87810B1D87805283A
:10EE000001DD0F20F0BDD8781070D878401E714E0B
:10EE10000A3606EB80000068C2F801000520207069
:10EE20000120EFE710B50446E07808B1012000E0CA
:10EE30000020684988771E31012001F06BF908B97C
:10EE4000102010BD0120FCE703466248807F0128A6
:10EE500000D100E00020107001200870704770B5EC
:10EE60000446A078052801DCA07808B90F2070BD01
:10EE7000E078A8B901250EE05749606841F83500EF
:10EE8000084600EBC501042001F062F908B9102022
:10EE9000EDE7681CC5B203F03BFAA842ECDC14E0D5
:10EEA00003F036FAE178884201DC0E20DFE7E178F2
:10EEB000494A606842F83100E07802EBC001042062
:10EEC00001F046F908B91020D1E70120CFE72DE97C
:10EED000F04104460D461646A078032801DCA078D0
:10EEE00010B90F20BDE8F081E07890B9012700202B
:10EEF000287009E0384850F8370029787050287891
:10EF0000001D2870781CC7B203F002FAB842F1DC89
:10EF10000DE003F0FDF9E178884201DC0E20E1E725
:10EF2000E0782D4951F8300030600420287001202D
:10EF3000D8E770B50446A078032801DCA07808B9AA
:10EF40000F2070BDE078B8B9012510E0A0882249F3
:10EF500001EBC5018880204800EBC500011D02209F
:10EF600001F0F6F808B91020EBE7681CC5B203F011
:10EF7000CFF9A842EADC16E003F0CAF9E17888424A
:10EF800001DC0E20DDE7A088E178134A02EBC10125
:10EF90008880E07802EBC000011D022001F0D8F863
:10EFA00008B91020CDE70120CBE72DE9F041044658
:10EFB0000D461646A078032801DCA07810B90F2072
:10EFC000BDE8F081E078C8B901270020287010E082
:10EFD0000404000890150020A0160020FE4800EB55
:10EFE000C7008088297870522878801C2870781C87
:10EFF000C7B203F08DF9B842F0DC0EE003F088F9F7
:10F00000E178884201DC0E20DAE7E078F24901EB92
:10F01000C00080883080022028700120D0E770B5C1
:10F020000446A078022801DCA07808B90F2070BD42
:10F03000E078B8B9012510E02079E74901EBC50176
:10F04000C871E54800EBC500C11D012001F080F842
:10F0500008B91020EBE7681CC5B203F059F9A842C3
:10F06000EADC16E003F054F9E178884201DC0E2076
:10F07000DDE72079E178D84A02EBC101C871E07878
:10F0800002EBC000C11D012001F062F808B9102098
:10F09000CDE70120CBE72DE9F04104460D461646A9
:10F0A000A078022801DCA07810B90F20BDE8F0811B
:10F0B000E07898B90127002028700AE0C64800EBE4
:10F0C000C700C079297870542878401C2870781CB3
:10F0D000C7B203F01DF9B842F0DC0EE003F018F9F6
:10F0E000E178884201DC0E20E0E7E078BA4901EBE4
:10F0F000C000C0793070012028700120D6E770B5BB
:10F100000446A078052801DCA07808B90F2070BD5E
:10F11000E078B8B9012510E02079AF4901EBC501CD
:10F120008871AD4800EBC500811D012001F010F889
:10F1300008B91020EBE7681CC5B203F0E9F8A84253
:10F14000EADC16E003F0E4F8E178884201DC0E2006
:10F15000DDE72079E178A04A02EBC1018871E0780F
:10F1600002EBC000811D012000F0F2FF08B9102061
:10F17000CDE70120CBE72DE9F04104460D461646C8
:10F18000A078032802DD0F20BDE8F081E07808B107
:10F19000A07898B90127002028700AE08E4800EB7B
:10F1A000C7008079297870542878401C2870781C12
:10F1B000C7B203F0ADF8B842F0DC0EE003F0A8F8F7
:10F1C000E178884201DC0E20DEE7E078824901EB3D
:10F1D000C00080793070012028700120D4E72DE92B
:10F1E000F04104460D461746E178207901EB0020F6
:10F1F00086B26079822802DD0E20BDE8F081B6F586
:10F20000004F01DB1120F8E760793044B0F5004F82
:10F2100002DD7042287001E06079287029783A4652
:10F220003046FDF7C7FD08B91020E6E70120E4E706
:10F2300010B50446A07810B900F01CFF08E0A078D3
:10F24000052805D1E1788800221D0421FDF7EEFD97
:10F25000012010BD70B506460C46154629462046CD
:10F2600000F04DFF012070BD10B50446A0780128C4
:10F2700001DD0F2010BDA078012805D1E07818B974
:10F28000022000F0DCFE1CE0A07818B9012000F09C
:10F29000D6FE16E003F03CF8E17888420FDDE07816
:10F2A00000F084FEE07800F066FEE07800F03BFEBF
:10F2B000E07801F09EF8E078FEF7E6FC01E00E2031
:10F2C000D8E70120D6E770B50446A07808B90F202A
:10F2D00070BDE078022804D003280ED005281FD185
:10F2E00014E02079611DFEF737FC0546012D02D19F
:10F2F000A0700220ECE72846EAE761792079FEF762
:10F30000ACFC012800D1E3E71520E1E76179207921
:10F31000A21DFEF750FC012800D1D9E71620D7E73F
:10F3200000BF00BF0E20D3E770B504460D46164659
:10F33000E078012802D0042814D109E0617920790D
:10F3400033462A46FEF755FC012800D170BD0AE07D
:10F350006179207933462A46FEF763FC08B1012023
:10F36000F4E700E000BF00BF1520EFE710B504464A
:10F37000A07808B90F2010BDE07818B90120FEF779
:10F38000ADFB05E0E078FEF77FFC08B91720F2E757
:10F390000120F0E770B506460D4614460F48008878
:10F3A0004AF6552188422DD10C48801C0068401C2B
:10F3B00040B30A48801C006820B30848801C0068DD
:10F3C000B0F1443F1ED00548801C0068B0F1883F72
:10F3D00018D00248801C03E0A0160020800300081B
:10F3E0000068504988420DD04F4800688906D1F81E
:10F3F0008613C943884205D14FF00060D0F88203DC
:10F40000206002E04FF0FF302060201D01F089FBFA
:10F4100010202870012070BD10B586B0044614215C
:10F4200001A805F0C4FD4FF0FF300090A078082837
:10F4300002DA0F2006B010BD3B48801E00884AF655
:10F440005521884227D138480068401C18B33648F7
:10F45000006800B334480068B0F1443F1BD0324824
:10F460000068B0F1883F16D02F4800682D498842C7
:10F4700011D02D4800688906D1F88613C943884207
:10F4800009D14FF00060D0F88203D4F8031088420D
:10F4900009D10120CEE725480168072000598142A3
:10F4A00001D00E20C6E72248049054F8030F2149EA
:10F4B000896841F001011F4A91601C4908390968B7
:10F4C00011601A49091F096811601849096811601B
:10F4D00011460860096805914AF65520ADF8040008
:10F4E0002068CDF8060054F80309C043CDF80A009F
:10F4F00001AA14210C48801E01F094FD80B1D4F8BB
:10F50000030000906A4604214420FDF78FFC0A4B5B
:10F510004FF47A720021084600F09CF8012089E738
:10F52000022087E74245535482030008F0F7FF1F8B
:10F53000A542BD5A00300240B91D010810B5032094
:10F5400000F0A2FC1248FDF710FB10BD10B50446F8
:10F5500010480068B0F15A3F01D0122010BD0E488B
:10F56000D0F804010A4988420BD10C48FDF7FDFA96
:10F57000AFF237034FF496620021084600F06AF8B4
:10F5800004E00348FDF7F1FA01F087FE0120E5E70A
:10F59000A921010848000020E4090020551A0108AB
:10F5A0000020C8490860704730B503460C4619462C
:10F5B0000AE00846491CC34D2D1D05EB0010C0682C
:10F5C000904201D1C8B230BDA142F2D30020FAE787
:10F5D0007FB50546BB4A1288BA4B5B88D118B94A39
:10F5E00010882A46FFF7E0FF044694B3B548008828
:10F5F000201A012824D9601EB24A121D02EB001104
:10F6000010226846FDF7FAF8AE4B1B88E31A1A0180
:10F61000AC4B1E881B1D03EB06111B1F1B885B1CBC
:10F62000A84E361D06EB0310FDF713F9311F0A88AB
:10F63000091D01EB021010226946FDF7DFF800BF3B
:10F64000A0480088401C9F49088008464088401E0A
:10F6500048807FBD2DE9F0410746884615461E4685
:10F6600000BF98480088974949880844142802DB5D
:10F670000020BDE8F08100BF92480088914A52887E
:10F68000811832460020FFF78FFF00BB8D4B5B884F
:10F690001A018C4BB3F800C01B1D03EB0C111B1F90
:10F6A0001B885B1CDFF81CC20CF1040C0CEB031074
:10F6B000FDF7CFF8834804880088401C8149088002
:10F6C00000218048001D00EB041001700CE0304662
:10F6D000FFF77EFF7B4800887A4A528881183246BD
:10F6E0000020FFF761FF441E7648001D00EB041068
:10F6F00047707448001D00EB0410C6604FB905B98F
:10F700006D1C4FF0010800216E48001D00EB041035
:10F7100001706C48001D00EB0410A0F802806948DD
:10F72000001D00EB0410456000216648001D00EB41
:10F730000410816001209CE770B50546614800888F
:10F74000604A528881182A460020FFF72DFF0446A0
:10F7500004B35C4B1B885B4E768833441B1B1A0139
:10F76000584B1B1D03EB0411631E564E361D06EB52
:10F770000310FDF76EF8301F0088A04205D2301F3D
:10F780004088401E311F488004E04E480088401EDB
:10F790004C49088070BD7FB505464A4801882A4615
:10F7A0000020FFF701FF044654B3601E454A121DB6
:10F7B00002EB001110226846FDF720F8414B1B8830
:10F7C0001B1B1A013F4B1B1D03EB0411631E3D4E17
:10F7D000361D06EB0310FDF73CF8311F0988491E62
:10F7E0008AB2311F0A80091D01EB021010226946FE
:10F7F000FDF704F8301F4088401C311F488000BFCF
:10F800007FBD70B52F4C241D25E0207810B3E5682E
:10F8100000202070607830B1012807D002280ED077
:10F82000032814D10DE00120207000BF6188481E1C
:10F83000608019B92846FFF77FFF09E000BFA8479D
:10F8400006E0A84710B92846FFF776FF00E000BFA2
:10F8500000BF00BF10341B480188001D00EB0110E1
:10F86000A042D2D870BD1748001D0AE08168491C2B
:10F8700081604268914203D30021816001210170BF
:10F88000103010490A88091D01EB02118142EDD8A0
:10F89000704770B504460B4800880A4A52888118A0
:10F8A00022460020FFF780FE05460DB9002070BDFE
:10F8B00004480088801CA84201DD0120F7E70220EF
:10F8C000F5E700003C130020F0B585B00446A078B1
:10F8D00000282ADDA778E51C21E0A878102802DDA1
:10F8E0000F2005B0F0BD02208DF80000A878C21CE2
:10F8F00029460DF10100FCF781FF6846FDF75FF82E
:10F900000646012E08D0BDF80100A4F80300667178
:10F910000320A0700220E4E7A878C01C0544E01C86
:10F920003844A842D9D80120DBE70F20D9E72DE9D8
:10F93000F043C1B080460C4616460020207098F86F
:10F940000200002841DD98F8029001A800EB0905AB
:10F9500001AF4A4608F103013846FCF74FFF2EE09D
:10F960000520287017F8010B687017F8010BA870B4
:10F970000020E8702846FDF722F801281FD1697899
:10F980002278501C2070B154A9782278501C207025
:10F99000B154E878401EC1B2E9702278501C207042
:10F9A000B154EA7821788819691DFCF727FF20787F
:10F9B000E9780844207020785A2800DD03E001A887
:10F9C0004844B842CCD800BF48E002F0A1FC07464A
:10F9D0003EE0404800EB0710C56800BF28790128C9
:10F9E0002BD18DF8007128788DF8010100208DF859
:10F9F0000201E86808B32078C01C82190DF20311D7
:10FA000040A8EB689847012817D12178481C20703E
:10FA1000775429782278501C2070B1549DF8031136
:10FA20002278501C2070B15420789DF803110844AE
:10FA3000207020785A2800DD09E005F110002968BF
:10FA400005460068814202D22868FF28C6D900BF57
:10FA5000381EA7F10101CFB2BBD100BF012041B0D8
:10FA6000BDE8F08370B5044602F052FC0546A0786C
:10FA7000012801D00F2070BDE078A84201D30E20EC
:10FA8000F9E7E07888B902F043FC05460AE06D1E0C
:10FA9000104800EB0510806820B10E4901EB0511FC
:10FAA00088688047002DF2D10BE0E078094901EB2E
:10FAB0000010806828B1E178064A02EB01118868DD
:10FAC0008047054B3222C8210120FFF7C3FD0120EA
:10FAD000D1E70000445B0108930F01080346086862
:10FAE000984202D81068984201D200207047012045
:10FAF000FCE72DE9F04106460D4606F0030010B183
:10FB00000020BDE8F081B7480088402808D0802850
:10FB100009D0B0F5807F09D0B0F5007F0CD108E0A6
:10FB20004FF4F8440AE04FF43C4407E04FF4C83483
:10FB300004E04FF4483401E0002400BF00BFE8684F
:10FB40007043A04201D90020DBE7A7480670A7490F
:10FB50002868086068684860A8688860E868C860C5
:10FB6000002705E00020A24941F82700781CC7B211
:10FB7000402FF7D39D498868214601F00BFAC0E772
:10FB80002DE9F04104460D4617469848C068A0424A
:10FB900001D3C82D01DDBDE8F0816009944951F819
:10FBA000200004F01F02012191400840F0B98F4865
:10FBB00080688D49097804FB01063A46294630469B
:10FBC00001F002FA68B16009894951F8200004F097
:10FBD0001F020121914008436109854A42F8210032
:10FBE00004E084480078401C8249087000BFD2E7D6
:10FBF00030B502460B4600210020107013E0480982
:10FC00007B4C54F8200001F01F050124AC4020403B
:10FC100040B923F8021B1078801C107010786428FB
:10FC200000DD04E0491C7148C0688842E7D800BF85
:10FC3000107808B9012030BD0020FCE770B50546FA
:10FC40000C46A9B2694A9068FDF762F8201A84B29E
:10FC50000CB9012070BD0020FCE738B505460095C1
:10FC6000654C0BE001F090FA2168884205D16A46A4
:10FC70000421204601F0A8F938BD241DB4F1082F55
:10FC8000F0D35A4A10215C48203801F0B3F94FF400
:10FC900080615948203801F07DF9544A10215648B6
:10FCA000203801F091F92846FFF7D7FFE4E710B5B7
:10FCB000514C0FE001F068FA2168884209D1241FF5
:10FCC0002068492802D320685D2800D905E0207803
:10FCD00010BD241DB4F1082FECD300BF5320F7E76B
:10FCE00070B50446FFF7E3FF05464FF480612046F8
:10FCF00001F050F93D4A1021204601F065F92846EF
:10FD0000FFF7ABFF70BD30B5ADF2044D02F09EFAC7
:10FD100034480088402804D0802801D1374C02E0C4
:10FD200000BF374C00BF00BF01AA10213248203865
:10FD300001F060F901F028FAC5B24022294605A871
:10FD4000FCF77EFD2F4805900199069101F01CFA01
:10FD5000079001F019FA0890FFF7A9FF159005AA7E
:10FD60004421204601F030F9C8B301AA4FF4806164
:10FD700004F5806001F03EF9C2AA7421224801F026
:10FD800039F9C298BD9001F0FFF9BE9001F0FCF97D
:10FD9000C29001F0F9F9C3904FF40061080401F03A
:10FDA000F9F8E0B101AA4FF48061480401F00CF9C0
:10FDB000A8B10E48406802900A480088402802D145
:10FDC0004FF4904001E04FF4B040039002AA0821A4
:10FDD00009481C3801F0F8F80DF2044D30BDFFE77A
:10FDE0000020F9E7E0F7FF1F1F000020801400202B
:10FDF000901400202000002020040008006000086B
:10FE000000500008A53CC35A0003000810B5344B4D
:10FE10000122FF210020FEF73BF810BD00B5B3B072
:10FE200000F01AF800208DF8060002AA911E01A821
:10FE3000FFF77DFD8DF807009DF80600401CC0B25D
:10FE40008DF806009DF806200DF1070300210846F5
:10FE5000FDF7FFFF33B000BD10B502F002F84FF41C
:10FE60006161B0FBF1F201FB120000EB4001C1EB5C
:10FE7000C0101C4901EBC004AFF25F032246002111
:10FE80000846FFF7E7FB10BD70B504461448047040
:10FE9000012C02D14FF47A7500E005250CB9FFF76B
:10FEA000DBFF114B2A4600210846FFF7D3FB70BD4C
:10FEB00010B501F0CEFF4FF49671B0FBF1F201FBEB
:10FEC000120000EB800040F6C41101EB4004AFF2D9
:10FED000B303224600210846FFF7BCFB10BD00001B
:10FEE0002100002080EE36000DFE000810B5002233
:10FEF00020214FF43F60FCF7D5FF10BD10B5012461
:10FF00000AE004EB8401090101F580600022502120
:10FF1000FCF7C8FF601CC4B202F0FAF9A042F0DCA2
:10FF2000FFF7E4FF10BD2DE9F05F8246504605F073
:10FF3000CCF980460022F94B05F0DAF9064600229A
:10FF40004FF0814305F0ECF8044605F091F9834643
:10FF500000220A21FCF7A6FFBDE8F09F10B501249E
:10FF600004E02046FFF7DFFF601CC4B202F0D0F9C6
:10FF7000A042F6DC10BD10B50446E94800EB0410C1
:10FF8000406828B1E64800EB0410416820468847E5
:10FF900010BD10B5002404E02046FFF7ECFF601C04
:10FFA000C4B202F0B5F9A042F6DC10BD10B50446AB
:10FFB0004FF0FF30DB4941F83400002001EBC40171
:10FFC00088800120D74901EBC40188710020D54900
:10FFD00001EBC401C871D34901EBC402210101F155
:10FFE00080000821FCF722FF10BD10B5002404E0BA
:10FFF0002046FFF7DBFF601CC4B202F089F9A04283
:020000040801F1
:10000000F6DC10BD10B54FF0FF30C7490860002086
:1000100001F095FEC4494860022008720020487231
:1000200014220021C0480A30FCF70AFC0020BE4917
:1000300088770A461F214020FCF7F8FE10BD38B52E
:100040000446BAA000680090FFF7DCFFFFF7CDFF81
:10005000FFF79FFFFFF782FFFFF750FF0120FDF73B
:100060003DFD022C02D16846FDF79DF90120FFF706
:100070000BFF38BD10B5002240211046FCF712FFDF
:1000800010BD10B5A84A1F214020FCF793FEA649D9
:10009000486801F054FEC0B1AFF2190332220021CA
:1000A0000846FFF7D7FAA2480078401CC0B2A04922
:1000B0000870032812DDAFF23500FFF73DFBFFF7B4
:1000C000D9FF0120FFF7BBFF08E09948007800281E
:1000D00004DD00209649087002F01CF910BD38B507
:1000E0000446A0006A460421FCF764FE0098401C08
:1000F0000090A0006A460421FCF798FE38BD70B558
:1001000004460D464020207021782A460020FCF746
:1001100051FE70BD70B505460C468349611A01F168
:10012000400022462946FCF781FE70BD70B50446AA
:100130000D4607E005EBC402210101F18000082112
:10014000FCF738FE201EA4F10101CCB2F2D170BD43
:1001500070B505460C467348261AF108090180312E
:1001600006F00702881822462946FCF75FFE70BD9C
:100170002DE9F74F86B089461446484605F0A5F8A4
:10018000054600224FF0804305F0B2F882468B46C8
:10019000069805F09AF807460022604B05F0A8F88B
:1001A000054600224FF0814304F0BAFF52465B46F9
:1001B000CDE9000104F0B4FFCDE9020105F058F8E3
:1001C00005AA02210490FCF7F5FD102C0CDA0120A1
:1001D000A040BDF81410084030B10120A040BDF887
:1001E00014108143059107E0FF2C02D100200590F7
:1001F00002E009B0BDE8F08F484605F066F8054614
:1002000000224FF0804305F073F882468B46069833
:1002100005F05BF807460022404B05F069F80546FB
:1002200000224FF0814304F07BFF52465B46CDE94C
:10023000000104F075FFCDE9020105F019F805AAE7
:1002400002210490FCF7F2FD00BFD2E72DE9F74F41
:1002500086B089461446484605F037F80546002220
:100260004FF0804305F044F882468B46069805F02F
:100270002CF807460022294B05F03AF805460022E3
:100280004FF0814304F04CFF52465B46CDE900013C
:1002900004F046FFCDE9020104F0EAFF05AA0221BD
:1002A0000490FCF787FD102C34DA0120A040BDF843
:1002B0001410084070BB0120A040BDF81410084382
:1002C00080B20590484605F000F8054600224FF040
:1002D000804305F00DF882468B46069804F0F5FF42
:1002E000074600220D4B05F003F8054600224FF0AB
:1002F000814304F015FF52465B46CDE9000104F04E
:100300000FFFCDE9020104F0B3FF05AA022104901A
:10031000FCF78CFD09B0BDE8F08F00000000244020
:10032000445B0108A01600209015002000F801533E
:10033000220000202DE9F74F86B00C46914620465A
:1003400004F0C3FF054600224FF0804304F0D0FFC5
:10035000CDE90201069804F0B8FF07460022D34B0E
:1003600004F0C6FF054600224FF0814304F0D8FE9A
:10037000CDE90001DDE9022304F0D2FE824604F05B
:1003800077FF05AA02210490FCF714FD012000FA72
:1003900009F0BDF81410084018B1012009B0BDE8FB
:1003A000F08F0020FAE738B504462546E11704EB44
:1003B0005171C91001F53F606A460121FCF7FAFC52
:1003C0002046E11704EB5171C910A4EBC1020121D1
:1003D00091409DF800208A4300922546E11704EBE6
:1003E0005171C91001F53F606A460121FCF71EFDFD
:1003F00038BD30B595B0054605EB8501090101F51D
:10040000806001AA5021FCF7D5FC002408E001A877
:10041000005D18B101A9085DFFF7C5FF601CC4B2FB
:10042000502CF4DB05EB8501090101F58060002209
:100430005021FCF737FD15B030BDF8B504460D4628
:10044000164604EB8401090101F58061102202FBCC
:100450000511012202FB06106A460121FCF7AAFCE5
:100460009DF8000090B104EB8401090101F5806161
:10047000102202FB0511012202FB061000220121BD
:10048000FCF710FD9DF80000FFF78DFFF8BD014659
:100490004FF44060802902DA00EBC10014E000F55F
:1004A0008060A1F18002D1B2402902DA00EB011094
:1004B0000AE000F58060A1F14002D1B2402902DAE1
:1004C00000EB411000E000BF704770B505460C46D8
:1004D0002078411C22462846FCF7A8FC70BD014646
:1004E000082901DA01207047102901DA8020FAE793
:1004F000202901DAC020F6E74FF48070F3E770B5E9
:1005000088B006460D466A4620214FF43F60FCF74E
:1005100051FC3046FFF7E3FF04460020287023E03B
:10052000684600EBD400007804F0070201219140F6
:100530000840C0B92C70684600EBD400007804F085
:100540000702012191400843694601EBD40108707C
:10055000694601EBD4024FF43F6101EBD400012165
:10056000FCF764FC02E0641CFF2CD9D900BF08B082
:1005700070BD2DE9F84305460E4617461C4605EBAF
:100580008501090101F58061102202FB061101229B
:1005900002FB07106A460121FCF70CFC2078FFF7EC
:1005A0009EFF9DF80010884205D99DF80000FFF7D6
:1005B000FAFE002000909DF80000C0B9207869463E
:1005C000FFF79DFF9DF8000010B91120BDE8F883EA
:1005D00005EB8501090101F58061102202FB06117E
:1005E000012202FB07106A460121FCF71FFC9DF85F
:1005F0000000FFF74CFF80462146FFF766FF012011
:10060000E4E72DE9F84305460E4617461C4605EB80
:100610008501090101F58061102202FB061101220A
:1006200002FB07106A460121FCF7C4FB9DF800009D
:1006300048B19DF80000FFF72AFF8046224620219E
:10064000FCF7B8FB01E000202070BDE8F88370B52E
:1006500004460D4616466019B0F5004F02D8B4F5B1
:10066000405F01D2112070BD324629462046FCF77A
:10067000DDFB08B91020F6E70120F4E770B5044669
:100680000D4616466019B0F5004F02D8B4F5405F2C
:1006900001D2112070BD324629462046FCF78AFB64
:1006A00008B91020F6E70120F4E70000000024401C
:1006B00010B58C2200217548FCF7C2F80020734960
:1006C000886010BD2DE9F0410446A0780A2802DABE
:1006D0000F20BDE8F081D4F80350E0796B49088021
:1006E000D4F80900486008460088B5FBF0F048805F
:1006F00008460088B5FBF0F100FB115020B16348BB
:100700004088401C61494880802200215F480C30AD
:10071000FCF796F85D484088B0F5806F01D90E204F
:10072000D7E7207A5A2830D1594858498860594823
:100730000088402808D0802809D0B0F5807F09D0F3
:10074000B0F5007F0CD108E0534E37460BE0534E16
:10075000534F08E0534E544F05E0544E544F02E0BF
:100760000026002700BF00BF48484068B0420BD3B6
:10077000464840682844B84206D244494868294659
:1007800000F008FC0120A4E712E0207AA5280FD190
:1007900048483E49886008464068B0F5405F07D346
:1007A000084640682844B0F5004F01D2012090E788
:1007B000FFF77EFF0E208CE770B50446B4F80350B7
:1007C000A078801EA070A07830490988884202DC99
:1007D0002E48806808B90D2070BD2C484088A8427A
:1007E00001DA0E20F8E7691128480C3050F8210092
:1007F00005F01F02012191400840F0B923484068EC
:100800002249098805FB0106A1782048621D8368FA
:1008100030469847012801D01220DDE769111B48B6
:100820000C3050F8210005F01F02012191400843CF
:100830006A1116490C3141F822000120CCE770B54D
:100840000446134600220020087014E055090F48A2
:100850000C3050F8250002F01F060125B540284055
:1008600040B90D785A530878801C087008786428BD
:1008700000DD04E0521C054840889042E6D800BFE5
:10088000087808B9012070BD0020FCE7B0150020F1
:10089000C90F0108E0F7FF1F0000010800800108F0
:1008A00000000208002803080000040800480608A9
:1008B000000008084F06010808B51021002000F0CC
:1008C0008CF9D0B91A4801680068401C184A1060B9
:1008D00029B9184B142200210220FEF7BBFE144850
:1008E0000068642811D114A0006800900220FFF76E
:1008F000A6FB6846FFF7B6F807E00D48006820B190
:1009000000F004F800200A49086008BD10B508226C
:100910001021002000F01AF91021002000F044F905
:10092000044B4FF4FA6200210220FEF793FE10BD43
:1009300024000020B9080108009001007F48804988
:1009400048608048486070477D48006940F08000FA
:100950007B49086170477A48C06800F0200020B1E8
:1009600020207749C860012070470020FCE701463D
:1009700000E0491E29B17248C06800F0010000285B
:10098000F7D109B9012070476D48C06800F0140024
:1009900020B114206A4AD0600120F4E70020F2E779
:1009A00070B505464FF40050FFF7E1FF0446B4B9B7
:1009B0006348006940F002006149086108464561EA
:1009C000006940F0400008614FF40050FFF7CFFF8E
:1009D00004465B48006920F002005949086114B9D7
:1009E000FFF7B9FF0446204670BD70B505460E46B8
:1009F0004FF44050FFF7BBFF04468CB950480069E4
:100A000040F001004E4908612E804FF44050FFF73E
:100A1000AEFF04464A48006920F0010048490861D9
:100A20001CB9FFF798FF00B10124204670BD70B5D6
:100A300005460C4616464FF44050FFF798FFF0B9B4
:100A40003F48006940F001003D4908610EE03088F0
:100A50002880B61CAD1CA41E4FF44050FFF787FF42
:100A600018B9FFF778FF08B902E001E0002CEED1D9
:100A700000BF3348006920F00100314908610CB91A
:100A8000012070BD0020FCE710B500244FF4405059
:100A9000FFF76DFFD8B9FFF751FF2948006940F013
:100AA0002000274908610846006940F040000861BD
:100AB0004FF44050FFF75BFF18B9FFF74CFF00B150
:100AC00001241F48006920F020001D4908612046CC
:100AD00010BD70B504460D4600264FF44050FFF798
:100AE00046FFE0B9FFF72AFF1548006940F0100003
:100AF000134908610846006940F04000086125700C
:100B00004FF44050FFF733FF18B9FFF724FF00B14F
:100B100001260B48006920F0200009490861304691
:100B200070BD0949096801600749091D09684160EC
:100B30000549083109688160704700002301674555
:100B400000200240AB89EFCDE8F7FF1FF0B5034668
:100B50001446254D05EB8322244DAD699E1C0127CB
:100B6000B7403D43214EB56100201AE001F0010578
:100B7000ADB1C50852F825504607F70E0F26BE4006
:100B8000B543C60842F82650C50852F82550460716
:100B9000F60E04FA06F63543C60842F82650491008
:100BA000401C0029E2DCF0BD02460B460E4800EB7B
:100BB0008221C8681843C860C86880B270470A4B71
:100BC00003EB8022D3688B43D3607047064B03EB63
:100BD0008022D3684B40D36070470246024800EB46
:100BE00082239868084070470008014000100240C6
:100BF000002107E0052101E04A1E91B20029FBDC3B
:100C0000421E90B20028F5DC704710B50322C021C7
:100C10000120FFF79BFFC0210120FFF7C5FF032242
:100C200020210120FFF792FF20210120FFF7BCFFC8
:100C300010BD10B580210120FFF7B6FF4021012033
:100C4000FFF7B2FF0220FFF7D3FF80210120FFF75B
:100C5000B6FF0220FFF7CCFF40210120FFF7AFFFD6
:100C600010BD10B580210120FFF7A9FF0220FFF77A
:100C7000BFFF40210120FFF797FF0220FFF7B8FFD9
:100C800080210120FFF790FF0220FFF7B1FF10BD88
:100C900010B5044640210120FFF791FF0220FFF725
:100CA000A7FF24B180210120FFF77EFF03E0802110
:100CB0000120FFF784FF0220FFF79AFF4021012067
:100CC000FFF772FF0220FFF793FF40210120FFF79B
:100CD00076FF10BD10B50024082280210120FFF707
:100CE00035FF80210120FFF75FFF0220FFF780FF23
:100CF00040210120FFF758FF0220FFF779FF10E0A5
:100D0000601C80B20446B0F5FA7F0ADD0322802120
:100D10000120FFF71BFF80210120FFF745FF002086
:100D200010BD80210120FFF758FF0028E8D14021A5
:100D30000120FFF744FF0220FFF75AFF0322802122
:100D40000120FFF703FF80210120FFF72DFF022084
:100D5000FFF74EFF0120E3E770B504464021012074
:100D6000FFF72DFF0220FFF743FF002520E004F0EE
:100D7000800020B180210120FFF716FF03E08021D1
:100D80000120FFF71CFF6006040E0220FFF730FF72
:100D900040210120FFF708FF0220FFF729FF402133
:100DA0000120FFF70CFF0220FFF722FF681CC5B2ED
:100DB000082DDCDBFFF78EFF70BD70B50646002402
:100DC000082280210120FFF7C1FE80210120FFF7CA
:100DD000EBFE00251BE040210120FFF7F0FE022082
:100DE000FFF706FF40210120FFF7DEFE0220FFF79C
:100DF000FFFE6006040E80210120FFF7EEFE08B121
:100E0000601CC4B20220FFF7F3FE681CC5B2082DB7
:100E1000E1DB40210120FFF7D2FE0220FFF7E8FED0
:100E2000032280210120FFF791FE80210120FFF79E
:100E3000BBFE0220FFF7DCFE3046FFF729FF20460D
:100E400070BD70B505460C4600BFFFF7F2FE2846A0
:100E5000FFF782FF10B9601E041EF6D1FFF701FFF5
:100E60000CB1012070BD0020FCE72DE9F0410746E0
:100E70000E4615461C46FFF7DCFE3846FFF76CFFB2
:100E8000F0B13012FFF768FFD0B1F0B2FFF764FFA6
:100E9000B0B1FFF7CEFE47F00100FFF75DFF78B17C
:100EA00006E00020FFF789FF05F8010B601EC4B2C1
:100EB000012CF6DC601EC4B20120FFF77EFF287013
:100EC000FFF7CFFE14B90120BDE8F0810020FBE759
:100ED0002DE9F04107460D4616461C46202101200B
:100EE000FFF76DFEFFF7A5FE3846FFF735FF98B117
:100EF0002812FFF731FF78B1E8B2FFF72DFF58B1A4
:100F000007E016F8010BFFF727FF00B903E0601EAA
:100F1000C4B2002CF5DC00BFFFF7A3FE20210120A6
:100F2000FFF742FE14B90120BDE8F0810020FBE785
:100F30002DE9F04107460D4616461C4620210120AA
:100F4000FFF73DFEFFF775FE3846FFF705FF90B14E
:100F50002812FFF701FF70B1E8B2FFF7FDFE50B1B4
:100F600006E03046FFF7F8FE00B903E0601EC4B2A9
:100F7000002CF6DC00BFFFF774FE20210120FFF7F4
:100F800013FE14B90120BDE8F0810020FBE7704793
:100F90007047704770B505460C46FFF7CFFC03E07D
:100FA000A4F5806405F580652846FFF7F9FC10B1CB
:100FB000B4F5806FF4D8FFF7C7FCB4F5806F01D8A3
:100FC000012070BD0020FCE72DE9F04106460C46EB
:100FD000174604F0010000B1641CFFF7AFFC3A466D
:100FE00021463046FFF723FD0546FFF7ADFC2846B6
:100FF000BDE8F081034604E018681060121D1B1D57
:10100000091F0029F8D10120704710B5034603E0FD
:1010100018781070521C5B1C081EA1F10101F7D159
:10102000012010BD2DE9F04FADF2044D80460D4674
:10103000924605F0010000B16D1CFFF77FFCB8F18E
:10104000006F02D3B8F1016F04D300200DF2044DFC
:10105000BDE8F08FA8F1006B4FEA9B26CBF309099E
:10106000C9F58064A54200D8ACB24DE04FF00061F4
:1010700001EB86206A464914FFF7BCFF002708E011
:1010800009EB07001DF80000FF2800D003E0781CE2
:1010900087B2A742F4DB00BFA7421EDA4FF000611F
:1010A00001EB8620FFF77CFCCDF80004002707E069
:1010B0001AF8070007EB09010DF80100781C87B248
:1010C000A742F5DB4FF0006101EB86206A46491428
:1010D000FFF7ADFCCDF8000406E05246214640463D
:1010E000FFF7A5FCCDF80004A54200D10DE0761C69
:1010F0004FF00009A244A0442D1BB5F5806F02D922
:101100004FF4806400E0ACB2B0E700BFFFF71CFC16
:10111000DDF800049AE71CB51D4903C9CDE90001BB
:101120001C48406940F040001A4948611A488068EC
:1011300040F00100184988600846007940F0FF003F
:10114000087116480068164988421CD013490A39AC
:1011500008681149896841F001010F4A91601149FD
:10116000096811600F49091D096811600D490831AE
:101170000968116011460860096801916A460821F2
:101180000648FFF74FFF1CBD4FF0FF3070470000CF
:10119000FC5A010800100240003002408C03000895
:1011A000A542BD5AE8F7FF1F08B1012100E0002168
:1011B000FE4A11707047FE487047FE48007870473D
:1011C00070B505460C464FF480510120FFF7F7FC3F
:1011D000284600F069FC204600F066FC06464FF405
:1011E00080510120FFF7E0FC304670BD10B5F24899
:1011F000006820F48060F049086002228915002010
:10120000FFF7A4FC0222D1020120FFF79FFC042279
:1012100011020120FFF79AFC042251020120FFF77E
:1012200095FC4FF480610120FFF7BEFC4FF4006194
:101230000120FFF7B9FC00F062FC042000F0B2FCD2
:1012400010BD0120DD490870704710B505218720C9
:10125000FFF7B6FF02218E20FFF7B2FF02218820A0
:10126000FFF7AEFF00218820FFF7AAFF132185209A
:10127000FFF7A6FF80218620FFF7A2FF00210320B1
:10128000FFF79EFF00210420FFF79AFFCA4800687D
:1012900040F48060C849086010BD10B5C6480068B9
:1012A00020F48060C449086000218E20FFF788FF89
:1012B00001218720FFF784FF00218520FFF780FFB1
:1012C00000218620FFF77CFF00210320FFF778FF35
:1012D00000210420FFF774FF0220FBF75DFD10BD25
:1012E00010B50446B64A21460220FBF717FE10BD92
:1012F00010B500212620FFF763FF0446B1480078AF
:10130000A04203DAAF480078201A02E0AD48007826
:10131000001B08284EDA6410AA48007804EB60002D
:10132000A84908700846C078401CC0B2C87014288C
:1013300060DD084600780A2803DB08460078DC28D0
:1013400003DD0420FFF7CCFF30E09E480078143026
:101350009849087008460178A720FFF731FF9A489E
:101360000068F8B100F075FD97490968884205D218
:1013700000F06FFD94490968081A04E000F069FD67
:1013800091490968401A9149884206D20420FFF722
:10139000A7FF00208C49086008E000F05AFD8A4948
:1013A000086003E000F055FD874908600020884987
:1013B000086010BD83484078A04203DA8148407835
:1013C000201A02E07F484078001B32280DDA7D4861
:1013D0008078401CC0B27B49887004280ADD08462A
:1013E00004700020C870887004E0764844700020C3
:1013F0007449887076480068401C75490860B0F5EB
:10140000167F06D9002008600420FFF769FF00203E
:10141000CFE70120CDE710B5FFF7E8FE4FF480518C
:101420000120FFF7C1FB4FF480710020FFF7BCFBE8
:101430000220FBF7B1FC4FF480710020FFF7BFFBE7
:101440003220FBF7A9FC00210320FFF7B9FE0021A1
:101450000420FFF7B5FE80218720FFF7B1FE0220B0
:10146000FBF79AFC00218720FFF7AAFE00218520C8
:10147000FFF7A6FE00218620FFF7A2FE0021032031
:10148000FFF79EFE00210420FFF79AFE79218920B4
:10149000FFF796FE06218A20FFF792FEEA218B20B5
:1014A000FFF78EFEEA218C20FFF78AFEFC218D20BB
:1014B000FFF786FE00218E20FFF782FE4548017867
:1014C0009C20FFF77DFE434841789D20FFF778FE82
:1014D000404881789E20FFF773FE3E48C1789F20E8
:1014E000FFF76EFE3B480179A020FFF769FE3948FF
:1014F0004179A120FFF764FE36488179A220FFF7E9
:101500005FFE3448C179A320FFF75AFE3148017AC3
:10151000A420FFF755FE2F48417AA520FFF750FE83
:101520002C48817AAA20FFF74BFEAC21B020FFF7B0
:1015300047FE0021B220FFF743FE0221B320FFF750
:101540003FFE1021B420FFF73BFE2821B520FFF716
:1015500037FE2D21B620FFF733FED421B720FFF749
:101560002FFE0021B820FFF72BFE0021B920FFF746
:1015700027FE4221BA20FFF723FE4521BB20FFF7BB
:101580001FFE5321BC20FFF71BFE5421BD20FFF797
:1015900017FE4221BF20FFF713FE4521C020FFF7B1
:1015A0000FFE5321C120FFF70BFE15E02B0000209A
:1015B0003C1600202A0000200004014029000020E1
:1015C00017140108340000203C000020A068060029
:1015D00038000020045B01085421C220FFF7F0FD11
:1015E000FF21C320FFF7ECFDFF21C420FFF7E8FD3A
:1015F000FF21C520FFF7E4FDFF21C620FFF7E0FD36
:10160000FA48C17AD820FFF7DBFDF848017BE920D2
:10161000FFF7D6FDF548417BEE20FFF7D1FDF348FB
:10162000817BEF20FFF7CCFDF048C17BF020FFF776
:10163000C7FDEE48017CF120FFF7C2FDEB48417C7D
:10164000F220FFF7BDFD5221F520FFF7B9FDFEF7AF
:101650002EFB493800EB80004006040E2146F9209D
:10166000FFF7AEFDE148C17CF620FFF7A9FDDF489A
:10167000017DF720FFF7A4FD0021F320FFF7A0FD77
:101680000021F420FFF79CFD0A21FA20FFF798FDC6
:101690000721ED20FFF794FDD5480178A720FFF73B
:1016A0008FFDD44B4FF4C87200210320FDF7D2FF09
:1016B0001E21FC20FFF784FD0C21FD20FFF780FD9B
:1016C0003221FE20FFF77CFD01220A21104600F0A6
:1016D000C1FA022328220021184600F099FAC648D0
:1016E000006820F48060C4490860FFF7D6FDFFF76A
:1016F000ACFDFFF7A6FD10BD10B503218820FFF754
:101700005FFD08218820FFF75BFD01218E20FFF798
:1017100057FD10BD2DE9F04106460C4690460025C8
:10172000FFF7BBFDFFF7E8FF2146BE20FFF748FDAE
:101730001DE04FF4805503E01420FBF721FB6D1EE4
:1017400000210320FFF73CFD00F0200008B9002D28
:10175000F2D1002707E016F8011BFF20FFF730FD4C
:10176000601EC4B27F1C322F01D2002CF3D1002C9A
:10177000DFD109218720FFF723FD4FF4C870FBF765
:10178000FFFA4FF4805506E0681E051E03D10420C1
:10179000FFF7A6FD08E000210320FFF711FD00F090
:1017A000040008B9002DEFD100BFFFF776FDFFF769
:1017B0004CFDBDE8F0812DE9F04F91B081464FF02E
:1017C000000A4FF0010BBCE05046411C01F0FF0A3B
:1017D000052806DD0520FFF783FD002087490870F6
:1017E000B7E000210320FFF7EBFC044600210420B2
:1017F000FFF7E6FC064606F0800028B1002126200F
:10180000FFF7DEFC7E49087004F0010018B10020EB
:101810007A4908709DE004F01000E0B100250AE06C
:1018200000217F20FFF7CCFC074639464846FBF7EE
:101830005EFC681CC5B2322DF2DB70480078CD2802
:1018400003DD00206D49087083E06C480078323079
:101850006A49087000BF04F00200002871D069488E
:101860000078C8B900214B20FFF7AAFC04460EE01F
:1018700000217F20FFF7A4FC054629464846FBF7D8
:1018800036FC83465D480078401C5C4908705B4824
:101890000078A042ECDB49E00DF10A0505F11207E2
:1018A00000214B20FFF78CFC044632283DDA002053
:1018B000524908700CE000217F20FFF781FC01A94C
:1018C0004E4A127888544D480078401C4B490870A5
:1018D0004A480078A042EEDBE87CB2280FD1F878C5
:1018E000BB280CD1FDF7ABF8E968884207D13879FD
:1018F000642804DA424801783879434A1154FDF7E4
:101900009EF8E96888420AD0FDF79CF880463E4878
:1019100010F80800401C3C4901F8080000BF2246AE
:1019200001A94846FBF770FB834600BF00203349FE
:101930000870BBF1000F04D1002203210220FBF745
:10194000EDFA4FF480610120FFF747F900283FF4DA
:101950003BAF00BF2948007808B9FFF776FC11B00B
:10196000BDE8F08F10B52948FFF725FF4FF48060E0
:1019700021491431086010BD10B504462448008880
:1019800070B9082C00D3012400F063FA214931F822
:101990001410B0FBF1F201FB1200801C1C490880FE
:1019A0004FF400610120FFF718F9F0B918480088DA
:1019B000401E80B21649088090BB17480088401C22
:1019C00080B215490880642808DD00200880094B92
:1019D0004FF4C87200210320FDF73CFE00200C49A3
:1019E00008800E490880012010BD1AE0045B010840
:1019F0002A000020F1120108000401402C00002000
:101A0000280000202B0000203C160020BC000020F5
:101A1000320000201A5B0108300000202E00002058
:101A200016E000201A4908801A4908801A480088E0
:101A3000401C80B218490880B0F57A7F08DD00208C
:101A40000880164B4FF4C87200210320FDF702FEF8
:101A5000002010BD70B505460E46144610480078AB
:101A6000012813D12046FFF787FF78B100223146C5
:101A70002846FFF74FFE002009490870094BC8228D
:101A800000210846FDF7E6FD012070BD0020FCE7BF
:101A900032000020300000202E000020F11201084A
:101AA00029000020431201080146002208E01046E8
:101AB000531C9AB24FF6FE73984201DB0020704728
:101AC0004348008800F002000028F0D04048001D84
:101AD0000180002208E01046531C9AB24FF6FE73B4
:101AE000984201DB0020EAE73948008800F0010055
:101AF0000028F0D03648001D0088C0B2DFE700B5EE
:101B00003448006940F48040324908610846006961
:101B100020F4804008610846806940F00800886130
:101B20000846C06940F48040C8612B480068C0F393
:101B300013002949086008460068284908432649D7
:101B4000086025480830006840F4604022490831A8
:101B500008601F48083800881D4908390880084671
:101B6000008840F4007008800846008840F48070C7
:101B700008800846008840F0040008800846008875
:101B800008800846008840F0180008800846008851
:101B900008800846008840F040000880FF20FFF7DA
:101BA00083FF00BD00F007000949083909884FF696
:101BB000C7721140064A083A11801146098841EA65
:101BC000C00111801146098841F040011180704721
:101BD0000838004000100240040C01400000B0BB77
:101BE000484A0A400243484B1A607047014607239F
:101BF00023EA01021202444B1B1D18684FF6FF0333
:101C00001840424B184310433F4B1B1D1860704750
:101C10002DE9F0410746884614461D460026284611
:101C2000FFF7E4FFC5F1040007FA00F60F20284192
:101C300000EA0800064336013548065504F01F0146
:101C4000012088406111890001F1E021C1F8000103
:101C5000BDE8F08170B504460B46CE1701EB9676D1
:101C6000C6F38700CE1701EB9676B610A1EB860679
:101C7000B606350E274B9B6943F00103254EB36131
:101C80004FEAB63353F820300F26AE40B343224E0E
:101C900046F82030334653F8203004FA05F61E4348
:101CA0001D4B43F820601D4B1B6801268E403343BB
:101CB0001A4E336002F0010343B1184B0C331B681A
:101CC00001268E403343154E0C36336002F002037A
:101CD00043B1124B08331E6801238B401E430F4B48
:101CE00008331E6070BD70B50446254620680C4957
:101CF0000840B0F1005F04D12868FAF74BFC68682F
:101D0000804770BD80FFFF1F08ED00E00000FA056E
:101D100000E400E00010024008000140000401401F
:101D20000000FE2F10B500F0CBFA482000F07CF840
:101D3000FFF7F1F9FEF769FFFFF76DFB10BD0146F4
:101D4000354800884AF6552290422CD13248801CF2
:101D50000068401C38B33048801C006818B32E4817
:101D6000801C0068B0F1443F1DD02B48801C0068E7
:101D7000B0F1883F17D02848801C0068274A90425D
:101D800011D02548801C00689206D2F88623D243E1
:101D9000904208D12048801C006888420AD01E4822
:101DA000801C006870471E480068884202D01C48AA
:101DB0000068F7E70020F5E7174800884AF6552144
:101DC000884228D11448801C0068401C18B312486F
:101DD000801C0068F8B11048801C0068B0F1443FD6
:101DE00019D00D48801C0068B0F1883F13D00A4814
:101DF000801C0068094988420DD00748801C006893
:101E00008906D1F88613C943884204D10248801C50
:101E100000680449486070478003000842455354F5
:101E2000F0F7FF1F901500204FF0E021096921F025
:101E300004014FF0E02211614FF47A714143C90867
:101E40005161002191610321116100210F4A11604C
:101E500070470E48006870470C4800680C490860DD
:101E600070470B480068704710B50848006809497A
:101E7000B0FBF1F201FB120004490860084600685B
:101E8000401C0860FDF7EFFC10BD00004000002082
:101E9000440000200084D71710B50822202100201C
:101EA000FEF754FE20210020FEF77EFE002026498A
:101EB000086010BD10B500220921244800F074F913
:101EC00010BD10B500243BE02148005D622835D1EB
