:020000040800F2
:100000006006002075010008790100087B010008E6
:100010007D0100087F010008810100080000000048
:100020000000000000000000000000008301000844
:100030008501000800000000870100088901000810
:100040008B0100088B0100088B0100088B01000860
:100050008B0100088B0100088B0100088B01000850
:100060008B0100088B0100088B0100088B01000840
:100070008B0100088B0100088B0100088B01000830
:100080008B0100088B0100088B0100088B01000820
:100090008B0100088B0100088B0100088B01000810
:1000A0008B0100088B0100088B0100088B01000800
:1000B0008B0100088B0100088B0100088B010008F0
:1000C0008B0100088B0100088B0100088B010008E0
:1000D0008B0100088B0100088B0100088B010008D0
:1000E0008B0100088B0100088B01000800F002F86A
:1000F00000F02CF80AA090E8000C82448344AAF196
:100100000107DA4501D100F021F8AFF2090EBAE893
:100110000F0013F0010F18BFFB1A43F0010318473B
:1001200044010000540100000023002400250026A3
:10013000103A28BF78C1FBD8520728BF30C148BF4A
:100140000B6070471FB51FBD10B510BD00F031F832
:100150001146FFF7F7FF00F06FF800F04FF803B417
:10016000FFF7F2FF03BC00F057F8000080F30888A7
:100170007047000008480047FEE7FEE7FEE7FEE79D
:10018000FEE7FEE7FEE7FEE7FEE7FEE70348044979
:10019000044A054B70470000ED0000086000002095
:1001A0006006002060020020600200207047704757
:1001B0007047754600F02CF8AE4605006946534678
:1001C00020F00700854618B020B5FFF7DFFFBDE837
:1001D00020404FF000064FF000074FF000084FF0AE
:1001E000000B21F00701AC46ACE8C009ACE8C0093F
:1001F000ACE8C009ACE8C0098D46704710B50446AC
:10020000AFF300802046BDE81040FFF7A8BF000014
:10021000004870470000002001491820ABBEFEE7EF
:1002200026000200704770B5044625462868FFF78F
:100230009DFF6868804770BD08480468084A2168C7
:10024000914203D105490C31096802E00349091DB7
:1002500009680846FFF7E7FF00BFFEE784030008D0
:10026000558778AA7402000800000020600600008C
:040270002801000859
:04000005080000ED02
:1002F000102700000000000002000000FFFFFFFFC9
:10030000FFFFFFFFFFFFFFFFFFFFFFFFFFFFFFFFFD
:09031000FFFFFFFF49544C30319E
:1003800000000008000400080008000800600008E1
:0C0390000064000800EC010800000208F6
:0804040010270000588E0000D3
:020000040800F2
:1008000008220020A9090008B1090008B30900085E
:10081000B5090008B7090008B90900080000000080
:10082000000000000000000000000000BB090008FC
:10083000BD09000800000000BF090008752B000872
:10084000C3090008C3090008C3090008C309000858
:10085000C3090008C3090008C3090008C309000848
:10086000C3090008C3090008C3090008C309000838
:10087000C3090008C3090008C3090008C309000828
:10088000C3090008C3090008C3090008C309000818
:10089000C3090008C3090008C3090008C309000808
:1008A000C3090008C3090008C3090008C3090008F8
:1008B000C3090008C3090008C3090008C3090008E8
:1008C000C3090008C3090008C3090008C3090008D8
:1008D000C3090008452E0008C3090008C309000821
:1008E000D5100008C3090008C309000800F002F889
:1008F00000F04AF80AA090E8000C82448344AAF170
:100900000107DA4501D100F03FF8AFF2090EBAE86D
:100910000F0013F0010F18BFFB1A43F00103184733
:1009200028310000483100000A4410F8014B14F04F
:100930000F0508BF10F8015B240908BF10F8014B30
:100940006D1E05D010F8013B6D1E01F8013BF9D179
:10095000641E03D0641E01F8015BFBD19142E4D315
:10096000704700000023002400250026103A28BF0D
:1009700078C1FBD8520728BF30C148BF0B60704711
:100980001FB51FBD10B510BD00F027FA1146FFF7C7
:10099000F7FF02F08FFE00F045FA03B4FFF7F2FF15
:1009A00003BC00F04DFA00000948804709480047A1
:1009B000FEE7FEE7FEE7FEE7FEE7FEE7FEE7FEE70F
:1009C000FEE7FEE704480549054A064B704700006C
:1009D000C12B0008ED08000808190020082200209B
:1009E000081A0020081A0020EFF3108072B6704732
:1009F00080F31088704730BF80F3088870474FF04D
:100A0000010080F3138802480249016000BFFEE73D
:100A10000CED00E00400FA0508B50146002000BF17
:100A20000CE00A5C02F0F002C0F10303CB5C03F0BF
:100A30000F031A430DF80020421CD0B20328F0DD4A
:100A4000002004E01DF800200A54421CD0B2032804
:100A5000F8DD08BD03784B40037043785340437082
:100A600083784B408370C3785340C3707047F8B5A8
:100A700013460022072900DC01B9F8BD012B60D123
:100A80000578C1F108060124B440641E2C408C4056
:100A90004678C1F108070125BD406D1EC5F1FF056F
:100AA0003540C1F1080635412C43E4B28DF80040D1
:100AB0004578C1F108060124B440641E2C408C40E6
:100AC0008678C1F108070125BD406D1EC5F1FF05FF
:100AD0003540C1F1080635412C43E4B28DF80140A0
:100AE0008578C1F108060124B440641E2C408C4076
:100AF000C678C1F108070125BD406D1EC5F1FF058F
:100B00003540C1F1080635412C43E4B28DF802406E
:100B1000C578C1F108060124B440641E2C408C4005
:100B20000678C1F108070125BD406D1EC5F1FF051E
:100B30003540C1F1080635412C43E4B28DF803403D
:100B400053E0022B50D1C57801248C40641E2C4008
:100B5000C1F10805AC40067801258D406D1EC5F138
:100B6000FF0535400D412C43E4B28DF80040057877
:100B700001248C40641E2C40C1F10805AC4046782D
:100B800001258D406D1EC5F1FF0535400D412C43FB
:100B9000E4B28DF80140457801248C40641E2C405D
:100BA000C1F10805AC40867801258D406D1EC5F168
:100BB000FF0535400D412C43E4B28DF802408578A5
:100BC00001248C40641E2C40C1F10805AC40C6785D
:100BD00001258D406D1EC5F1FF0535400D412C43AB
:100BE000E4B28DF8034000E047E7002204E01DF87E
:100BF00002408454541CE2B2032AF8DD00BF3CE7F3
:100C000010B504462046FFF707FF6C4802786C4891
:100C100001782046FFF72BFF6A4802786A4801787E
:100C20002046FFF717FF654842786548417820461F
:100C3000FFF71DFF2046FFF7EFFE6248427862484B
:100C400041782046FFF706FF2046FFF7E5FE5D48A6
:100C500082785D4881782046FFF7FCFE574882780D
:100C6000574881782046FFF702FF5648C278564819
:100C7000C1782046FFF7EEFE5048C2785048C17850
:100C80002046FFF7F4FE2046FFF7C6FE10BD30B544
:100C90000346002000BF07E01C5C00F00305555D23
:100CA0006C401C54441CE0B28842F5DB30BD70B58A
:100CB00004460D462946204600F092F908B9012065
:100CC00070BD0020FCE770B504460D46042229469D
:100CD0003E4802F000FD28B904223D49204602F0BA
:100CE0000BFD07E004222946204602F005FD2046C0
:100CF000FFF786FF70BD70B504460D4600262A46F4
:100D00002146A01D02F004FD05F10800207002201C
:100D1000607004222D49A01C02F0FAFC2C4A2946DE
:100D2000A01DFFF7B4FF2078801E81B2204600F09E
:100D300057F9064631122078801E21542078401E33
:100D40002654012070BDF8B504462178204600F0F5
:100D500047F908B10220F8BD25786678022E1BD12C
:100D6000A11C6846FFF7AFFFA5F10800C1B26A46B3
:100D7000A01DFFF78CFFA5F10800C1B2A01DFFF771
:100D800096FF38B1A5F10802A11D204602F0C0FC73
:100D90000020E0E70120DEE70320DCE710B5044691
:100DA00004222146094802F0A7FC042221460848F3
:100DB00002F0A2FC0648FFF723FF10BD3C3A0008F2
:100DC000383A0008443A0008403A00085801002028
:100DD0005C010020704770477047754600F02CF8A2
:100DE000AE4605006946534620F00700854618B018
:100DF00020B5FFF7E7FDBDE820404FF000064FF0BB
:100E000000074FF000084FF0000B21F00701AC463F
:100E1000ACE8C009ACE8C009ACE8C009ACE8C0095E
:100E20008D46704710B50446AFF300802046BDE8FC
:100E30001040FFF7B2BD000000487047A418002022
:100E400001491820ABBEFEE72600020070470000F3
:100E500010B500F067FB006905490068884205D0BD
:100E600004480068BDE8104000F03CBE10BD000022
:100E7000A53CC35A9003000870B500F053FB4469C9
:100E80004FF0006505E000F053FA2168884204D075
:100E90001034D5F89003A042F5D8103C074A102131
:100EA000204601F085F82068A0F14901142901D8F5
:100EB000C0B270BD01495320086070BD7418002095
:100EC00070B50446204D288900280DD1082C00D388
:100ED000012401F0B1FF1D4931F81410B0FBF1F20B
:100EE00001FB1200801C28814FF40061012000F0FA
:100EF000D5FA4FF4C872002480B12C81EC80A88808
:100F0000401C80B2A880B0F57A7F05D9AC80104B28
:100F10000021032001F094FE002070BD2889401EAE
:100F20000004000C2881F7D1E888401C80B2E880DA
:100F3000642805D9EC80064B0021032001F080FED7
:100F40002C81AC80012070BD380100201C3A0008C3
:100F5000092A000870B50021D0F80B401E4DC1EBE6
:100F6000C10305EB43021668A6421CD10021C47BD5
:100F70005618367AA64201D1002070BD491CC9B26C
:100F80000529F5D3517B491CC9B20524B1FBF4F600
:100F900004FB161151730822294402EB4302C07B63
:100FA0008854012070BD491CC9B21429D7D30B4BFA
:100FB0001978491CC9B21422B1FBF2F402FB1411D6
:100FC0001970C1EBC10105EB4101C27B0A72D0F877
:100FD0000B000860012070BDA00500201C0000204F
:100FE00070B5002300240022074E08E0855C5D40B8
:100FF00036F81550EBB263402C0A521C92B28A426A
:10100000F4D344EA032070BD6837000810B50549E1
:10101000054800F083FFBDE810400449044800F093
:101020007DBF000070020020F00600209004002028
:10103000100F002006E00521491E89B20029FBD1CE
:10104000401E80B20028F6D17047000070B500F055
:1010500069F980B24FF480724FF4C07354005D00A0
:101060009600402811D080280FD090420DD0984291
:101070000BD0A04209D0A84207D0B04205D01248F8
:1010800081690068081AC0F38F20104998420DD07A
:1010900006DC40280DD080280FD0904211D105E009
:1010A000A04203D0A84201D0B0420AD1084808604B
:1010B00070BD07483038086070BD054818380860B2
:1010C00070BD0020086070BD800300083001002062
:1010D000043A000810B5044801F012F803494FF42F
:1010E0008060086010BD0000E0060020140401408C
:1010F00070B58B088C07240F124DAE6946F00106BF
:10110000AE619D00104B2B449D680F26A640B54351
:101110009D609D68A04005439D600C4B1C680120AC
:10112000884004431C60D10704D0084B0C33196875
:1011300001431960910704D5044908310A68024344
:101140000A6070BD00100240000001400004014030
:10115000F0B5C1B006461446002E32D0FA2C30D875
:10116000224601A802F0C8FAA1B201A8FFF738FF91
:101170000546FFF739FC074606221349304602F0C0
:1011800050FAF0B12A0A01A8611C02554A1C4554C4
:10119000D1B2FFF7B0FDA0B19DF80420FA2A10D813
:1011A00001A9304602F03DFA58B1062207493046FF
:1011B00002F037FA28B13846FFF71AFC012041B097
:1011C000F0BD0020FBE70000683900086E39000818
:1011D00070B500F07BFE194900204870887001222C
:1011E0004A71174DC1F80C51164BC1F8083101F581
:1011F000887148708A704A71134AC1F80C21134CE7
:10120000C1F8084101F588714870887002244C715A
:10121000C1F80C51C1F8083101F588714870887027
:101220004C71C1F80C210A48C1F80801BDE87040B2
:1012300005220021074B022001F002BD60010020C1
:10124000653400085D1D0008CD330008C11E00088C
:10125000191F00080D10000870B505464FF4005620
:10126000304600F075F880B90B4C206940F0020060
:1012700020616561206940F040002061304600F047
:1012800067F8216921F002012161002803D1BDE83E
:10129000704000F051B870BD002002400022402193
:1012A000104602F060B838B504466A46012120466F
:1012B00000F0F2FE9DF80010491C00916A460121E1
:1012C000204602F01DF838BD0122FF21014B00200D
:1012D00000F087BD2E01002010B50C46002804D078
:1012E000012809D0022811D109E0022001F0A6FF4F
:1012F0000B4801F0EBFC09E000F0ECFB06E02AB142
:10130000134600210522084601F09AFC002C06D065
:10131000012C04D02046BDE81040FFF7C4BF10BD2B
:10132000E11A00080148008870470000E0F7FF1F3D
:101330004FF0FF30704700000448C168890603D5AC
:101340002021C1600120704700207047002002402A
:10135000094900E0401E10B1CA68D207FAD138B17D
:10136000C86810F0140F05D01420C8600120704721
:1013700001207047002070470020024003480249C6
:1013800041600349416070472301674500200240E6
:10139000AB89EFCD2DE9F04105460C4616464FF4DA
:1013A00040584046FFF7D4FFB8B90F4F386940F0B6
:1013B000010038610BE036F8020B25F8020BA41E81
:1013C0004046FFF7C5FF20B9FFF7B6FF08B1002C74
:1013D000F1D1386920F00100386114B10020BDE876
:1013E000F0810120FBE70000002002400248016973
:1013F00041F0800101617047002002402DE9FC4767
:101400000023002400940194224C04EB8024224EFB
:10141000B769801C4FF0010808FA00F52F4202D18D
:10142000B0692843B06102F00F0C2068009060683A
:10143000019008FA03F50D421DD0D8086F465DF8FB
:1014400020905E07F60E4FF00F0A0AFA06FA29EA14
:101450000A094DF8209057F820900CFA06F649EA50
:10146000060947F82090182A02D0082A02D002E084
:10147000656100E025615B1C102BDAD311F0FF0FD2
:1014800001D000982060FF2901D901986060BDE873
:10149000FC870000000801400010024002460020C6
:1014A000034B03EB822292680A4200D0012070476E
:1014B00000080140024A02EB8020416170470000B1
:1014C00000080140024A02EB8020016170470000E1
:1014D00000080140034A02EB8020C2684A40C26013
:1014E00070470000000801400C4902280AD0032080
:1014F00088770220C87701F128000862103048621E
:101500001A38704709200870082048700448C1F84C
:1015100002001030C1F8060000487047B8060020ED
:10152000000F0020014800687047000030010020D3
:1015300070B50D461446FFF79FFC207001202870FF
:1015400070BD70B506460D461446FFF7EBFF026905
:1015500000687379012B03D0022B0FD00E2070BDD1
:101560000B212970918821800168C4F802109168CC
:10157000C4F80610007AA072012070BD1E2070BD54
:1015800070B506460C461546FFF7CCFF0169F078AA
:1015900048B1B0884A68824205D0A0F57F42FF3A40
:1015A00001D0122070BD002020708888288020780B
:1015B000801CC0B22070896829502078001D2070DE
:1015C000012070BD10B50B460D490078097888429E
:1015D00014D10C4C2078F12805D0F2280CD0002032
:1015E0002070222010BD1146184601F083FD08B17D
:1015F000F2202070012010BD012010BD032010BD7D
:10160000250000202400002070B504460D46164633
:1016100000F056FA2379F02B03D0F22B08D00E20DD
:1016200070BD324629462046BDE87040FFF789BFAD
:10163000324629462046BDE87040FFF7C3BF000090
:101640002DE9F0410C461546FFF76CFF0269016871
:101650004368002020704FF6FF7028802078801C9F
:10166000C0B22070134F1668BE4202D14FF0FF3255
:1016700000E092682A502078001DC0B220705A689D
:101680002A502078001DC0B2207051F8242B2A5017
:101690002078001D207004E02078431C23702A5419
:1016A000491C0A78A2F130002A28F5D90120BDE8AA
:1016B000F0810000A53CC35A10B50446FFF732FF85
:1016C0008168104A0868904213D14868421C10D0C3
:1016D00078B1B0F1443F0CD0B0F1883F09D00A4A4C
:1016E000904206D08968C943884202D1A04205D100
:1016F00005E006480168A14201D0006810BD002045
:1017000010BD00005A3CC3A542455354F0F7FF1FDB
:1017100010B5044640210120FFF7CCFE0220FFF760
:1017200089FC24B180210120FFF7CCFE03E0802159
:101730000120FFF7BFFE0220FFF77CFC40210120C3
:10174000FFF7C0FE0220FFF775FC4021BDE8104006
:101750000120FFF7AFBE10B50322C0210120FFF723
:101760004DFE80210120FFF7ADFE40210120FFF753
:10177000A9FE032220210120FFF740FE2021BDE821
:1017800010400120FFF79EBE70B5064600241822C7
:1017900080210120FFF732FE002540210120FFF7C4
:1017A00089FE0220FFF746FC40210120FFF78AFE58
:1017B0000220FFF73FFC6006040E80210120FFF7A6
:1017C0006DFE08B1641CE4B20220FFF733FC6D1C0F
:1017D000EDB2082DE1D340210120FFF76BFE02207E
:1017E000FFF728FC032280210120FFF707FE80215C
:1017F0000120FFF767FE0220FFF71CFC3046FFF7D1
:1018000087FF204670BD70B5054640210120FFF7D7
:1018100051FE0220FFF70EFC0024280604D580218B
:101820000120FFF74FFE03E080210120FFF742FE79
:101830006806050E0220FFF7FDFB40210120FFF79F
:1018400041FE0220FFF7F6FB40210120FFF732FEA8
:101850000220FFF7EFFB641CE4B2082CDDD3BDE8E7
:10186000704000F031B810B580210120FFF72AFE4A
:1018700040210120FFF726FE0220FFF7DBFB80213D
:101880000120FFF717FE0220FFF7D4FB4021BDE83F
:1018900010400120FFF70EBE10B580210120FFF798
:1018A00009FE0220FFF7C6FB40210120FFF70AFED8
:1018B0000220FFF7BFFB80210120FFF703FEBDE8F8
:1018C00010400220FFF7B6BB70B50024182280211B
:1018D0000120FFF793FD0220FFF7ACFB4021012020
:1018E000FFF7F0FD0220FFF7A5FB4FF4FA750EE0BD
:1018F000641CA4B2AC420AD9032280210120FFF764
:101900007DFD80210120FFF7DDFD002070BD8021DD
:101910000120FFF7C3FD0028EAD140210120FFF795
:10192000C9FD0220FFF786FB032280210120FFF77B
:1019300065FD80210120FFF7C5FD0220FFF77AFB3E
:10194000012070BD70B505460C46FFF78CFF284698
:10195000FFF759FF08B9641EF7D1FFF79DFF0CB1DF
:10196000012070BD002070BD2DE9F04107460E46F4
:1019700015461C46FFF777FF3846FFF744FFF0B1E6
:10198000300AFFF740FFD0B1F0B2FFF73CFFB0B133
:10199000FFF769FF47F00100FFF735FF38B90EE0A8
:1019A0000020FFF7F1FE05F8010B641EE4B2012CE4
:1019B000F6D8641EE4B20120FFF7E6FE2870FFF7B8
:1019C0006BFF14B10020BDE8F0810120FBE72DE999
:1019D000F04107460E4615461C4620210120FFF720
:1019E00069FDFFF740FF3846FFF70DFF88B1300A69
:1019F000FFF709FF68B1F0B2FFF705FF38B908E05B
:101A000015F8010BFFF7FFFE18B1641EE4B2002CBD
:101A1000F6D1FFF741FF20210120FFF753FD14B15C
:101A20000020BDE8F0810120FBE72DE9F0410746E9
:101A30000D4616461C4620210120FFF73BFDFFF70F
:101A400012FF3846FFF7DFFE80B1280AFFF7DBFE02
:101A500060B1E8B2FFF7D7FE30B907E03046FFF7D4
:101A6000D2FE18B1641EE4B2002CF7D1FFF714FFC8
:101A700020210120FFF726FD14B10020BDE8F081F0
:101A80000120FBE710B50C4A45F255531360506036
:101A90009160580010604CF6CC4010600222114654
:101AA0000120FFF7ABFC0021BDE81040034B4FF4D1
:101AB0004872022001F0C4B800300040C11A00088A
:101AC00003494AF6AA20086002210120FFF702BD5F
:101AD00000300040014801F0F9B80000C11A0008C8
:101AE0007047000010B50446006806490840B0F190
:101AF000005F06D12068FEF77FFF6068BDE81040F8
:101B0000004710BD0000FE2FF0B505460F461446F5
:101B10001E46304600F018F8C6F1040085400F203C
:101B2000F04038402843000104F1E02181F800042E
:101B300004F01F01012088406109890001F1E021C2
:101B4000C1F80001F0BD0000072181430902054AE8
:101B500010684FF6FF031840034B1843084310600A
:101B6000704700000CED00E00000FA0510B50549D3
:101B7000054800F0D3F9BDE810400449044800F0DE
:101B8000CDB9000060010020E006002080030020A5
:101B9000000F00202DE9F843044688460D266078A2
:101BA000DFF8F09000EB800009EB8000C5680027AB
:101BB0000020009001F0CEF96178884262D9A178C6
:101BC000286888424FD1207802280DD004280BD0F5
:101BD000072809D0092807D005282CD00B282AD09F
:101BE0000D2828D00C264DE0A86810B360782A494B
:101BF00001EBC000807998B1E278611CD21CA01C76
:101C000001F086FD84F80180A968601C88470646BB
:101C10000322A11C601C01F07BFD022E02D031E0EA
:101C200009262FE02868CF2800D90126E078009007
:101C300028E00A2626E0E86898B1E278611CD21C08
:101C4000A01C01F065FD84F80180621DEB68694607
:101C5000601C984706460322A11C601C01F058FD39
:101C600010E00B260EE0607800EB800009EB8000AE
:101C7000006980477F1CFFB2B84203D955F8100FA6
:101C8000FF289CD99DF80000401CE070267130466A
:101C9000BDE8F883243A00085001002070B50446DE
:101CA0000846FFF721FC054601202070184E3068D9
:101CB000C4F801007068E060D4F8060071688842DA
:101CC00002D0607901280CD9227DD5F802001532A6
:101CD0002146FFF73DFA20B9297800220220FFF7BC
:101CE000FBFAD4F80600716888420FD0227DD5F83F
:101CF000060015322146FFF72BFA002806D1697835
:101D0000BDE8704000220220FFF7E6BA70BD000077
:101D10008418002070B5C0B00E46154601AC0146CF
:101D20001022601C01F0E8FC0B49487A401C487204
:101D30008DF814000422314604F1110001F0DCFC9E
:101D4000F27829460DF1190001F0D6FC0121204658
:101D5000FFF7A4FF40B070BD84180020F8B50E4610
:101D600010F8015C841D00F11B0104F111030091C6
:101D70001F46621C314600F069F801281ED1294631
:101D80003846FFF707FF0246032A17D0607C022877
:101D90000DD005280BD0072801D00B2801D1012A2E
:101DA00005D0092801D00D2808D1012A06D000F05D
:101DB00007F8607429462046FFF770FF0120F8BD40
:101DC000801E0C280BD2DFE800F0060A0A080A067B
:101DD0000A060A080A0803207047062070470020F8
:101DE000704710B590B0144601228DF800208DF890
:101DF00001008DF802108DF803402246194601A813
:101E000001F07AFC241D0021E2B26B46084600F086
:101E100002F810B010BD10B586B001248DF80C404A
:101E20004FF08834CDF80D400024ADF811408DF806
:101E300004408DF805008DF806108DF807201A462D
:101E400001A902A8FFF766FF06B010BD70B51446E1
:101E5000184D20682968884206D0174A904203D05E
:101E6000491C01D0042070BD2046FFF773F830B143
:101E700020791249012804D005280CD00EE0082052
:101E800070BDD4F805006A68904201D0062070BD8C
:101E90000020486007E0D4F8050008B10D2070BDAF
:101EA000D4F80B004860D4F80B00C4F805000120FA
:101EB00070BD000084180020424553541C000020CF
:101EC0000C39C9B2801D00F07BBD000010B50E4971
:101ED0004FF480642246A1F1200001F0F2FA0B4990
:101EE0002246A1F5826001F0ECFA09492246A1F1EF
:101EF000200001F0E6FA22460649BDE81040A1F5AF
:101F0000826001F0DEBA000000070020000B002014
:101F1000200F00202013002000F0F4BF70B50C4605
:101F200000256178002902D0012922D10EE0014666
:101F3000D4F80C21A01D904710F0FF00207014D0A1
:101F40002571A078012811D00120E070D4F8083163
:101F500022792178A01D984728B1E078401E10F022
:101F6000FF00E07005D00120607070BD0248007A6B
:101F7000EBE7657070BD00008418002070B5054661
:101F80000C46FFF7FBF94FF4806603E0A4F580648C
:101F900005F580652846FFF75FF908B1B442F5D82A
:101FA000FFF724FAB44201D8012070BD002070BDB3
:101FB0008B0707D021F0030141F0040102E008C8BB
:101FC00008C2091F0029FAD10120704770B50546E3
:101FD0000C461646E10700D0641CFFF7CFF93246E5
:101FE00021462846FFF7D6F90446FFF7FFF92046B9
:101FF00070BD000010B5244A516801F00C01234B5C
:10200000042926D0082926D00360516801F0F00188
:1020100009091F4B5B5C0168D9404160536803F4B8
:10202000E0631B0A1A4C083CE35C21FA03F383606B
:10203000536803F46053DB0AE35CD940C160526823
:1020400002F44042920B231F9A5CB1FBF2F1016152
:1020500010BD0360D9E7516801F47011536803F4AF
:102060008033022404EB914133B153689B0307D5BD
:10207000084B59430160C8E7064B59430160C4E768
:10208000024B59430160C0E70010024000127A0081
:102090000C00002000093D002DE9F04105460C46EA
:1020A000174620E0B5F5004F03D247F69C708442F6
:1020B00002D90020BDE8F08105F03F00C0F14006E4
:1020C000A64200D32646F3B2A9B23A46A020FFF7B3
:1020D0004BFC50B13544A41B37444FF0FF31A020D6
:1020E000FFF730FC08B1002CDCD134B100221146DE
:1020F0001046FFF7F1F80020DCE70120DAE70000E6
:102100002DE9F04F91B0834600253227A946424E73
:102110004FF4806A71E028466D1CEDB2052805D9A0
:10212000052000F0A5FA86F801906CE0002103205C
:1021300000F042F980460021042000F03DF95FEAFA
:10214000C87002D086F801905DE05FEAC86019D5DA
:10215000707810B9584601F0A7FA002400217F20BA
:1021600000F02AF90146584601F040FA641CE4B236
:10217000322CF3D37078CD2802D986F8019042E052
:10218000323070705FEA887037D500214B2000F044
:1021900013F904460DF104080DE000217F2000F042
:1021A0000BF901467078B0FBF7F207FB120208F852
:1021B0000210401C70707078A042EED3322C02D80E
:1021C000584601F071FAB4FBF7F007FB104020B15C
:1021D000B4FBF7F007FB104200E0322201A9584699
:1021E00001F01FFA584601F0B9FA86F8019020B9BB
:1021F000002203210220FFF76FF851460120FFF76C
:102200004DF9002887D07078002801D100F0EAF855
:1022100011B0BDE8F08F0000380100200149012015
:1022200088707047380100202DE9F04107460D46BF
:1022300000F026FA00F000F92946BE2000F0BCF8B4
:102240004FF480581BE0444603E0142001F030F9BD
:10225000641E0021032000F0AFF8800601D4002C9A
:10226000F3D1002607E017F8011BFF2000F0A4F8C7
:102270006D1EEDB2761C322E01D2002DF3D1002D51
:10228000E1D10921872000F097F84FF4C87001F0E0
:102290000FF902E0B8F101080ED00021032000F090
:1022A0008BF8400702D4B8F1000FF3D100F0E8F941
:1022B000BDE8F04100F096B8042000F0D9F9F5E748
:1022C0001E48016941F480410161016921F48041A6
:1022D0000161816941F008018161C16941F4804176
:1022E000C16117480168C1F3130101600168154A13
:1022F0001143016012480830016841F460410160F7
:10230000114801880180018841F400710180018831
:1023100041F480710180018841F00401018001884D
:102320000180018841F01801018001880180018845
:1023300041F040010180FF2000F008B80010024089
:10234000040C01400000B0BB0038004010B5002173
:102350004FF6FE730E4A06E00C46491C89B29C42B9
:1023600001D3002010BD1488A407F5D5084C241D06
:102370002080002006E00146401C80B2994201D333
:10238000002010BD1188C907F5D02088C0B210BD4B
:102390000838004000F007010648028822F03802A1
:1023A0000280028842EAC1010180018841F04001B7
:1023B000018070470038004070B506460D464FF466
:1023C000805421460120FFF775F83046FFF7BEFF25
:1023D0002846FFF7BBFF054621460120FFF772F8AC
:1023E000284670BD10B505218720FFF7E5FF0221C3
:1023F0008E20FFF7E1FF02218820FFF7DDFF00219B
:102400008820FFF7D9FF13218520FFF7D5FF802112
:102410008620FFF7D1FF00210320FFF7CDFF002129
:102420000420FFF7C9FF0348016841F4806101609F
:1024300010BD00000004014010B503218820FFF703
:10244000BBFF08218820FFF7B7FF0121BDE810403E
:102450008E20FFF7B1BF00000CB500220192009260
:102460002748016841F4803101604FF4A06301689E
:1024700001F4003100910199491C0191009911B9B1
:1024800001999942F3D10168890302D50121009194
:1024900000E000920099012930D11A490A6842F0FF
:1024A00010020A600A6822F003020A600A6842F019
:1024B00002020A604168416041684160416841F43C
:1024C00080614160416821F47C114160416841F4C0
:1024D000E8114160016841F0807101600168890183
:1024E000FCD5416821F003014160416841F00201DF
:1024F00041604168C1F381010229FAD10CBD00009D
:10250000001002400020024010B50446E078012887
:1025100001D00F2010BD20794938152801D30E2095
:1025200010BDFEF7A9FC01462079814209D000F0D8
:1025300087FD40B10021054B4FF44872084600F07A
:102540007FFB012010BD122010BD0000CD26000829
:1025500010B5184A01781278914229D1164C217889
:10256000F22905D0F32921D000202070222010BDAF
:10257000401D0179427951404A40427151400171F8
:102580008188006800F04CFD012811D100F092FD17
:1025900070B1F3202070FFF79DFA084B4FF448729A
:1025A0000121002000F04CFB012010BD012010BDD6
:1025B000032010BD2500002024000020FF09000892
:1025C00010B50446FFF77CFA0D4920780978884257
:1025D00014D10C490878F12805D0F2280CD000203D
:1025E0000870222010BDE078801EC1B2A088A21D14
:1025F000BDE8104000F0A4BD012010BD032010BDB7
:10260000250000202400002010B50446FFF758FAEA
:102610002179F12903D0F32906D00E2010BD2046E0
:1026200000F0BAFDC0B210BD2046BDE81040FFF773
:102630008FBF10B50446E078012801D1217961B13E
:1026400078B100F087FC0146207981420ED900F074
:10265000BBFC207900F08EFC06E0022000F036FE84
:1026600002E0012000F032FE012010BD0E2010BD5E
:102670000146024A0220FEF72FBE0000CD260008C8
:1026800010B51148016821F48061016000218E209D
:10269000FFF792FE01218720FFF78EFE00218520A3
:1026A000FFF78AFE00218620FFF786FE0021032027
:1026B000FFF782FE00210420FFF77EFEBDE81040F8
:1026C000022000F0E7BE00000004014010B500F059
:1026D00049F94FF480510120FEF7F4FE4FF4807465
:1026E00021460020FEF7EEFE022000F0D3FE214638
:1026F0000020FEF7DFFE322000F0CCFE0021032098
:10270000FFF75AFE00210420FFF756FE80218720A4
:10271000FFF752FE022000F0BDFE00218720FFF7E8
:102720004BFE00218520FFF747FE00218620FFF7A2
:1027300043FE00210320FFF73FFE00210420FFF7A6
:102740003BFE79218920FFF737FE06218A20FFF71B
:1027500033FEEA218B20FFF72FFEEA218C20FFF7C2
:102760002BFEFC218D20FFF727FE00218E20FFF796
:1027700023FE2B219C20FFF71FFE40219D20FFF709
:102780001BFE0A219E20FFF717FE03219F20FFF763
:1027900013FE6821A020FFF70FFE0121A120FFF703
:1027A0000BFE3A21A220FFF707FE9321A320FFF79B
:1027B00003FE0221A420FFF7FFFDF621A520FFF76D
:1027C000FBFD1D21AA20FFF7F7FDAC21B020FFF78C
:1027D000F3FD0021B220FFF7EFFD0221B320FFF748
:1027E000EBFD1021B420FFF7E7FD2821B520FFF70E
:1027F000E3FD2D21B620FFF7DFFDD421B720FFF741
:10280000DBFD0021B820FFF7D7FD0021B920FFF73D
:10281000D3FD4221BA20FFF7CFFD4521BB20FFF7B2
:10282000CBFD5321BC20FFF7C7FD5421BD20FFF78E
:10283000C3FD4221BF20FFF7BFFD4521C020FFF7A8
:10284000BBFD5321C120FFF7B7FD5421C220FFF784
:10285000B3FDFF21C320FFF7AFFDFF21C420FFF729
:10286000ABFDFF21C520FFF7A7FDFF21C620FFF725
:10287000A3FD8021D820FFF79FFD6021E920FFF70D
:102880009BFD4E21EE20FFF797FDA521EF20FFF7DE
:1028900093FD2D21F020FFF78FFD2321F120FFF77D
:1028A0008BFD0D21F220FFF787FD5221F520FFF768
:1028B00083FDFEF7E1FA493800EB80004006010E87
:1028C000F920FFF779FD0A21FA20FFF775FD0021B5
:1028D000F320FFF771FD0021F420FFF76DFD622169
:1028E000F620FFF769FD0021F720FFF765FD0721BE
:1028F000ED20FFF761FD18480178A720FFF75CFD88
:10290000164B4FF4C8720021032000F099F91E21E4
:10291000FC20FFF751FD0C21FD20FFF74DFD32217A
:10292000FE20FFF749FD01220A211046FEF7E0FBD9
:102930000223282200211846FFF7E6F8084801681C
:1029400021F480610160FFF79BFEFFF74BFDBDE8BE
:102950001040FFF763BC000038010020092A00087E
:102960000004014070B51548016821F480610160E0
:10297000811502220020FEF741FD0222D102012032
:10298000FEF73CFD0422140221460120FEF736FD2D
:102990000422550229460120FEF730FD2146012080
:1029A000FEF790FD29460120FEF78CFDFFF788FC1D
:1029B000BDE870400420FFF7EDBC000000040140BA
:1029C0002DE9F04106460F4615460D4CA07801282A
:1029D00013D12846FEF774FA78B10020A0700021C8
:1029E000084BC822084600F02BF92A4639463046E3
:1029F000FFF71AFC0120BDE8F0810020FBE7000092
:102A0000380100201D22000870B500212620FFF7A4
:102A1000D3FC324B1978814201D2421A00E00A1AE3
:102A20002E4C00250A3C082A36DA400800EB5100FB
:102A3000C0B21870D978491CC9B2D97014293FD9CD
:102A4000A0F10A01D32924D21430C1B22170A720E9
:102A5000FFF7B2FC6069C8B100F0EEF96169884225
:102A600004D200F0E9F96169081A03E000F0E4F922
:102A70006169401A1A49884204D20420FFF7F8FD20
:102A8000656106E000F0D8F9606102E000F0D4F979
:102A900060612561002070BD5978814201D2411AE0
:102AA00000E0091A322909DA9978491CC9B29970EB
:102AB000042905D91870DD709D7001E058709D7073
:102AC0002069401C2061B0F5167F05D925610420DE
:102AD000FFF7CEFD002070BD012070BD4201002037
:102AE000A068060010B500F0BFFB002207210220FD
:102AF000FEF7F2FB0021054B4FF47A72084600F016
:102B00009FF8BDE810400248FEF748B9613200085E
:102B10008818002070B50D4C4FF0FF302060002069
:102B2000FEF7CAFD60600220207200256572142243
:102B3000002104F10A0000F008FEA5772246BDE856
:102B400070401F21402000F0DBBB000084180020F3
:102B500010B500F021F8FEF7FEFDFFF7B7FD4FF4CA
:102B6000165000F089F9BDE810404FF4FA610520D5
:102B7000FEF788BF064A10680649B0FBF1F301FB77
:102B8000130010601068401C106000F003B90000D2
:102B9000340100200084D71700B585B06846FFF7E0
:102BA00029FA01984FF47A71B0FBF1F14FF0E0206F
:102BB000491E41610721016105B000BD0620704733
:102BC00010B50F48016841F00101016041680D4AEC
:102BD0001140416001680C4A11400160016821F414
:102BE00080210160416821F4FE0141604FF41F0122
:102BF0008160FFF731FC054805490068086010BD99
:102C0000001002400000FFF8FFFFF6FE88030008F6
:102C100008ED00E010B5064B06E0044603EB041493
:102C2000401C2469944202D08842F6D3002010BD93
:102C3000201700200149002008607047201700205D
:102C40002DE9F04706460F46144699464FF0010815
:102C50001D4D288869880144142902D30220BDE84B
:102C6000F0874A460020FFF7D5FF98B1484600F0AC
:102C7000AFF8288869884A4601440020FFF7CAFF58
:102C8000401E4FF0030805EB00100671C0F81090CD
:102C900086B112E068880201288805EB0011401C0B
:102CA00005EB0010091D001D00F032FD2888411CB5
:102CB0002980E8E704B90124012700214171C78078
:102CC0008460C1604046CAE72017002010B50F4C51
:102CD00002460020218863881944FFF79BFF0028E3
:102CE00012D021886288114481420AD9091A0A0146
:102CF00004EB0011401E04EB0010091D001D00F044
:102D000007FD2088401E208010BD000020170020F5
:102D10002DE9F0411E4F3C1D13E0607880B1FDF7B6
:102D200063FE0646E56800206070217889B10129BC
:102D300011D002291BD003291ED03046FDF758FEC2
:102D40001034388807EB0010001DA042E5D8BDE81C
:102D5000F081012060706088411E618007D22846A2
:102D6000FFF7B4FF103C3046FDF742FEE8E730467F
:102D7000FDF73EFEA847E3E73046FDF739FEA847DA
:102D80000028DDD12846FFF7A1FF103CD8E700005E
:102D90002017002070B5FDF727FE0C4B191D0024ED
:102DA000012508E08A68521C8A604E68B24201D34D
:102DB0008C604D7010311A8803EB0212121D8A428A
:102DC000F0D8BDE87040FDF713BE000020170020CA
:102DD0007FB50246174D288869880144FFF71AFF1E
:102DE0000446002C25D02888201A01281BD9601EF3
:102DF00005EB0011091D1022684600F07DFC2888B3
:102E0000211A0A0105EB0011401C05EB0010091DF9
:102E1000001D00F07DFC2888102205EB0010001D2D
:102E2000694600F069FC2888401C28806888401E9C
:102E300068807FBD201700200148006870470000AF
:102E40003401002010B50A48008880060ED5FDF731
:102E5000CBFD04460649091D09880648C9B200F0A1
:102E6000C5FB2046BDE81040FDF7C2BD10BD000007
:102E700000380140000F002010B586B0044601A8BC
:102E8000FFF7B8F81C49C86840F48040C860C868BB
:102E900020F48040C860886940F004008861886937
:102EA00040F4804088611549086820F47F6008601C
:102EB000086840F40B60086004981149B0FBF4F016
:102EC0000880081D018842F20C021143018001882C
:102ED00041F480710180018841F02001018008499E
:102EE0004FF6BF70083908800321022325220846C7
:102EF000FEF70AFE06B010BD0010024004080140B3
:102F00000838014070B505460C4604E015F8010B81
:102F100000F008F820B1641EE4B2F7D2012070BDC1
:102F2000002070BD10B5002144F62062084B00E07F
:102F3000491C1C88640601D49142F9D3914204D201
:102F40000349091D0880012010BD002010BD0000AC
:102F5000003801400120704710B5002404E02046ED
:102F600000F008F8641CE4B2FFF7F4FFA042F6D8C2
:102F700010BD0000044900EB800201EB82014968AA
:102F8000002900D008477047243A000870B504466D
:102F90000E46802506E006EBC40205EB041008216E
:102FA000FFF77AF8641EE4B2F5D270BD10B50024C4
:102FB00004E0204600F008F8641CE4B2FFF7CAFF02
:102FC000A042F6D810BD0000084A4FF0FF3142F889
:102FD000301002EBC0020021918001239371D17166
:102FE000802101EB0010082100F08AB95001002077
:102FF00070B5012408490120FFF7C8FF074D08E01C
:10300000641EE4B204EB840055F8201009B1204698
:103010008847002CF4D170BD50010020243A0008EC
:1030200010B50C4681B205480068FDF7D9FF201A9B
:1030300080B208B1002010BD012010BD900300082F
:103040002DE9F0410746FEF76DFA05466C69DFF899
:103050006080C8F800704FF0006612E0FEF768F973
:103060002168884206D12046BDE8F041104A04217B
:10307000FEF7ACBF08F104020C21201DFEF798FFFB
:103080001034D6F89003A042E8D8094A1021103A2B
:103090002869FEF78DFFD6F890132869091AFEF704
:1030A0006DFF034A1021103A2869FEF78FFFCAE727
:1030B0007418002070B5FEF735FA0446FDF7DCFE03
:1030C0000546FEF735F90A4908604FF00060D0F870
:1030D00090132069091AFEF751FF054A1021206953
:1030E000FEF774FF2846BDE87040FFF7A9BF000057
:1030F00064180020F0B50022002303700F4C012556
:1031000013E0530904EB830302F01F07D3F80760B1
:1031100005FA07F31E4207D121F8022B03789B1C06
:10312000DBB20370642B03D8521CA3889342E8D807
:10313000007808B10020F0BD0120F0BD260000207D
:103140002DE9F041134B9C88641E844201D3C829A9
:1031500002D90020BDE8F081440903EB840400F0AB
:103160001F07D4F807600125BD402E420DD14FF056
:1031700000669B79D6F8906300FB0360FEF726FF9C
:1031800028B154F8070F284320600120E2E700200F
:10319000E0E700002600002070B54179012901D048
:1031A0001E2070BD134C01786170A11CC2880B6891
:1031B0005A600B688268DA600B68D0F80D209A605C
:1031C000007B88710A68D268B2FBF0F3B2FBF0F5BD
:1031D00000FB152008B1012000E000201844888081
:1031E0000448801C00F008F80128DAD1F120207092
:1031F000012070BD2400002070B50446A07980072E
:1032000001D0212070BD4FF00065D5F89013D5F89E
:103210009403401A2168C968814201D9202070BDF9
:103220004FF480720021E01D00F08FFA2068C16821
:10323000D5F89003BDE87040FEF7A0BE06490870BF
:10324000012805D005220021044B0846FFF7F8BCF1
:103250004FF47A72F7E700002E010020C91200082F
:103260000020FFF7EBBF000010B5164A1F214020D9
:10327000FEF712FF13484068FEF71EFA124CB8B171
:10328000AFF21B03002132220846FFF7D9FC207859
:10329000401CC0B22070032813D9AFF23300FFF7EF
:1032A00015FDFDF7FBFFBDE81040012000F00EB852
:1032B0002078002805D000202070BDE81040FFF7DE
:1032C00097BE10BD841800202D0100201CB50446B7
:1032D00009A106C9CDE90012FFF71CFCFFF766FE45
:1032E000FFF73AFE022C02D16846FFF70DF90120E4
:1032F000FFF7A4FF1CBD00000100F801530000000F
:103300002DE9F04105460C46174620E0B5F5004F83
:1033100003D247F69C70844202D90020BDE8F081B8
:1033200005F03F00C0F14006A64200D32646F3B2A6
:10333000A9B23A46A020FEF74AFB50B13544A41B7F
:1033400037446FF07041A020FEF7FCFA08B1002C62
:10335000DCD134B1002211461046FDF7BDFF00203C
:10336000DCE70120DAE72DE9F04105460C46174677
:103370001FE0B5F5004F03D247F69C70844202D996
:103380000020BDE8F08105F03F00C0F14006A642F4
:1033900000D32646F3B2A9B23A46A020FEF745FB79
:1033A00048B13544A41B6FF07041A020FEF7CAFA63
:1033B00008B1002CDDD134B1002211461046FDF7D2
:1033C0008BFF0020DDE70120DBE7000070B506463B
:1033D0000C46002C40D0204600F05BF906283BD973
:1033E00006221E49204600F09AF8A060204600F010
:1033F0008EF8012830D0A0686168801DB0FBF1F222
:1034000001FB120021680D5C012D1DD90C35FA2D30
:103410001AD8204600F03DF9A8421DD3A168A81F84
:10342000084461680623B0FBF1F201FB12010C4A6B
:10343000204600F051F838B12A463146204600F0C7
:10344000A2F848B1284670BDA0686168801DB0FB35
:10345000F1F201FB1200A060002070BD6839000885
:103460006E39000870B505462846FFF7AFFF0446E1
:103470005CB1A81DFDF767FC38B9AC7E1D34281976
:103480000622034900F038F9A41D204670BD000053
:103490006E39000870B5044640F2E63504E0FEF7E8
:1034A0000FFB284600F004F8641E601CF7D170BDC5
:1034B00003E00A21491E0029FCD1401E411CF8D11D
:1034C0007047002806D0016042600021C160816021
:1034D0000120704700207047F0B50768002F02D028
:1034E0000AB100240FE00020F0BD46680D19B5FBBD
:1034F000F6FC06FB1C5512F8016B7D5DB54201D050
:103500000020F0BD641C9C42EFD30120F0BDD0E947
:103510000210814201D10120704700207047F0B5B0
:10352000002806D029B122B184680023C668456806
:1035300012E00020F0BD076811F803C03F5D674549
:1035400004D15B1C934202D15B1E07E00023641C84
:10355000B4FBF5F705FB1744A642ECD12819C01AB5
:10356000B0FBF5F105FB1100F0BDC1684268491CD4
:10357000B1FBF2F302FB13118068814201D10120FB
:103580007047002070472DE9F04104460F4615466C
:10359000002C0CD02046FFF7BAFF012809D02046A6
:1035A00000F077F8A84206D20020BDE8F0810020A4
:1035B000FBE70020F9E7D4E901100E1AAE4200D370
:1035C0002E46216832460144384600F095F8AA1B81
:1035D000B819216800F090F8A06861682844B0FB31
:1035E000F1F201FB1200A0600120DEE770B5044695
:1035F0000D46002C11D02046FFF7B7FF01280ED052
:10360000E16820684554E0686168401CB0FBF1F255
:1036100001FB1200E060012070BD002070BD0020A1
:1036200070BD2DE9F04104460F461546002C07D029
:10363000204600F022F8A84204D20020BDE8F08124
:103640000020FBE76168E0680E1AAE4200D32E4608
:10365000216832460844394600F04EF8AA1BB919D1
:10366000206800F049F8E06861682844B0FBF1F296
:1036700001FB1200E0600120E0E7D0E90212914274
:1036800002D9881A401E704740680844801A401EBC
:103690007047D0E90221914203D240680844801A61
:1036A0007047881A7047000006220149FFF7B9BF2A
:1036B00068390008FDF7CAFCFDF7CAFBFFF7BAFA44
:1036C000FFF746FAFDF784FDFFF792FCFEF74EFA8E
:1036D000FFF71EFBFAE710B588420BD052B110F885
:1036E000013B11F8014BA34201D0012010BD521E35
:1036F000002AF4D1002010BD884208D0002A06D04C
:1037000011F8013B00F8013B521E002AF8D1704726
:1037100088420AD2002A07D011F8013B00F8013B89
:10372000A2F10102002AF7D17047FDD900EB020394
:1037300001EB0200002AF7D010F8011D03F8011D6B
:10374000A2F10102002AF7D17047002A04D000F844
:10375000011B521E002AFAD17047000006220149BF
:10376000FFF75FBF6E3900080000C1C081C1400192
:1037700001C3C003800241C201C6C006800741C721
:103780000005C1C581C4400401CCC00C800D41CDF1
:10379000000FC1CF81CE400E000AC1CA81CB400BC1
:1037A00001C9C009800841C801D8C018801941D991
:1037B000001BC1DB81DA401A001EC1DE81DF401F21
:1037C00001DDC01D801C41DC0014C1D481D5401531
:1037D00001D7C017801641D601D2C012801341D341
:1037E0000011C1D181D0401001F0C030803141F1D1
:1037F0000033C1F381F240320036C1F681F7403721
:1038000001F5C035803441F4003CC1FC81FD403DF0
:1038100001FFC03F803E41FE01FAC03A803B41FBC0
:103820000039C1F981F840380028C1E881E9402910
:1038300001EBC02B802A41EA01EEC02E802F41EF20
:10384000002DC1ED81EC402C01E4C024802541E530
:103850000027C1E781E640260022C1E281E3402340
:1038600001E1C021802041E001A0C060806141A150
:103870000063C1A381A240620066C1A681A7406720
:1038800001A5C065806441A4006CC1AC81AD406DF0
:1038900001AFC06F806E41AE01AAC06A806B41ABC0
:1038A0000069C1A981A840680078C1B881B9407990
:1038B00001BBC07B807A41BA01BEC07E807F41BF20
:1038C000007DC1BD81BC407C01B4C074807541B530
:1038D0000077C1B781B640760072C1B281B3407340
:1038E00001B1C071807041B00050C19081914051D0
:1038F0000193C053805241920196C0568057419720
:103900000055C19581944054019CC05C805D419DEF
:10391000005FC19F819E405E005AC19A819B405BBF
:103920000199C059805841980188C048804941890F
:10393000004BC18B818A404A004EC18E818F404F1F
:10394000018DC04D804C418C0044C184818540452F
:103950000187C047804641860182C042804341833F
:103960000041C18181804040F1F1F1F2F1F1F2F2C8
:10397000F2F1F2F2C00000000000000000000000C0
:1039800081150008C10000000000000000000000D8
:1039900041160008C900000000000000332600089E
:1039A00000000000F40000000000000009260008EC
:1039B00009160008F500000000000000C1250008FD
:1039C00000000000F80000000000000009250008C9
:1039D00031150008F0020008000400083004000857
:1039E0003C0400080050000840500008F0020008A5
:1039F00000040008300400083C04000800600008CF
:103A000040600008F00200080008000830080008C4
:103A10003C08000800680008406800080500050030
:103A200005000500E52A0008000000000000000075
:103A300074390008BD2B00080403020702020102CA
:103A400054F139CDE3A3A432683A00080000002005
:103A50006001000028090008883A00086001002081
:103A6000A820000064090008550204060895010218
:103A7000030499010203040607080907FFEF016424
:083A800018002001110228A02A
:04000005080008EDFA
:0C6004003801000031750000F82A02008D
:046040005300A55A0A
:020000040800F2
:10640000803800208D6800089568000897680008AB
:10641000996800089B6800089D680008000000005B
:106420000000000000000000000000009F6800085D
:10643000A168000800000000A3680008EF7E0008C3
:10644000A7680008A7680008A7680008A7680008F0
:10645000A7680008A7680008A7680008A7680008E0
:10646000A7680008A7680008A7680008A7680008D0
:10647000A7680008A7680008A7680008A7680008C0
:10648000A7680008A7680008A7680008A7680008B0
:10649000A7680008A7680008A7680008A7680008A0
:1064A000A7680008A7680008A7680008A768000890
:1064B000A7680008A7680008A7680008A768000880
:1064C000A7680008A7680008A7680008A768000870
:1064D000A7680008A768000873820008A76800087A
:1064E000C5790008A7680008A768000800F002F84E
:1064F00000F04CF80AA090E8000C82448344AAF112
:106500000107DA4501D100F041F8AFF2090EBAE80F
:106510000F0013F0010F18BFFB1A43F001031847D7
:10652000C8C30000E8C300000A4410F8014B14F08F
:106530000F0508BF10F8015B240908BF10F8014BD4
:106540006D1E05D010F8013B6D1E01F8013BF9D11D
:10655000641E03D0641E01F8015BFBD19142E4D3B9
:10656000704700000023002400250026103A28BFB1
:1065700078C1FBD8520728BF30C148BF0B607047B5
:106580001FB50BF068F81FBD10B510BD0BF00DF96D
:106590001146FFF7F5FF01F0D5FE0BF02BF903B420
:1065A000FFF7F2FF03BC0BF035F9000072B670473D
:1065B00062B6704780F30888704780F31088704790
:1065C000EFF3108072B670470B49D1F800C04A68EB
:1065D0005CF8043B1068184442F8040B8C4528BF53
:1065E000A1F1DC0C8A4228BFA1F1DC02C1F800C095
:1065F0004A6020F000407047182C00200CB50020A5
:10660000019000909848006840F4803096490860F6
:1066100000BF9548006800F4003000900198401CCD
:106620000190009818B90198B0F5A06FF1D18E488B
:10663000006800F4003010B10120009001E000205B
:1066400000900098012844D18848006840F010006C
:10665000864908600846006820F003000860084684
:10666000006840F0020008607F4840687E4948604A
:106670000846406848600846406840F480604860CA
:106680000846406820F47C1048600846406840F4A2
:10669000E81048600846006840F08070086000BF5D
:1066A0007148006800F000700028F9D06E4840681A
:1066B00020F003006C4948600846406840F0020042
:1066C000486000BF6848406800F00C000828F9D115
:1066D00059E06648006840F01000644908600846C8
:1066E000006820F0030008600846006840F00200DF
:1066F00008605D4840685C494860084640684860FA
:106700000846406840F4806048600846006820F40D
:10671000803008600846006840F00100086000BF53
:106720005148006808B9012000E0002000F0020094
:106730000028F5D14C48406820F480304A49486030
:106740000846406840F4601048600846006840F021
:106750008070086000BF4448006800F000700028A6
:10676000F9D04148406820F003003F49486008469E
:10677000406840F00200486000BF3B48406800F0BD
:106780000C000828F9D10CBD10B53748006840F05E
:1067900001003549086008464068354908403249DB
:1067A000486008460068334908402F490860084699
:1067B000006820F4802008600846406820F4FE004D
:1067C00048604FF41F008860FFF718FF2A480068F0
:1067D0002A49086010BDF0B50446002500230026B4
:1067E00000222148406800F00C0525B1042D06D098
:1067F000082D2BD107E0224A0020087028E0204A0B
:106800000120087024E01848406800F4701316480E
:10681000406800F4803616B10120087001E00020C5
:106820000870022000EB93431EB9164803FB00F2E8
:106830000BE00D48406800F4003018B1114803FB2C
:1068400000F202E00E4803FB00F201E00C4A00BF38
:1068500000BF05484068C0F303100B4F3D5CEA40A1
:1068600022600120F0BD0000001002400020024024
:106870000000FFF8FFFFF6FE9003000808ED00E0BF
:1068800000127A0000093D000000002009488047FE
:1068900009480047FEE7FEE7FEE7FEE7FEE7FEE702
:1068A000FEE7FEE7FEE7FEE704480549034A054B1D
:1068B0007047000089670008ED640008802C002004
:1068C00080380020802C002008B51021002000F026
:1068D0007EF9D0B91A4801680068401C184A106057
:1068E00029B9184B14220021022006F025F914487A
:1068F0000068642811D114A000680090022006F0FE
:106900008AFF684606F057FB07E00D48006820B193
:1069100000F004F800200A49086008BD10B50822FC
:106920001021002000F00CF91021002000F036F9B1
:10693000044B4FF4FA620021022006F0FDF810BD6E
:1069400010000020C96800080090010079487A49C9
:1069500048607A48486070477748006940F0800096
:106960007549086170477448C06800F0200020B184
:1069700020207149C860012070470020FCE70146D3
:1069800000E0491E29B16C48C06800F001000028F1
:10699000F7D109B9012070476748C06800F01400BA
:1069A00020B11420644AD0600120F4E70020F2E70F
:1069B00070B505464FF40050FFF7E1FF0446B4B947
:1069C0005D48006940F002005B4908610846456186
:1069D000006940F0400008614FF40050FFF7CFFF1E
:1069E00004465548006920F002005349086114B973
:1069F000FFF7B9FF0446204670BD70B505460E4648
:106A00004FF44050FFF7BBFF04468CB94A48006979
:106A100040F00100484908612E804FF44050FFF7D4
:106A2000AEFF04464448006920F001004249086175
:106A30001CB9FFF798FF00B10124204670BD70B566
:106A400005460C4616464FF44050FFF798FFF0B944
:106A50003948006940F00100374908610EE030888C
:106A60002880B61CAD1CA41E4FF44050FFF787FFD2
:106A700018B9FFF778FF08B902E001E0002CEED169
:106A800000BF2D48006920F001002B4908610CB9B6
:106A9000012070BD0020FCE710B500244FF44050E9
:106AA000FFF76DFFD8B9FFF751FF2348006940F0A9
:106AB0002000214908610846006940F04000086153
:106AC0004FF44050FFF75BFF18B9FFF74CFF00B1E0
:106AD00001241948006920F0200017490861204668
:106AE00010BD70B504460D4600264FF44050FFF728
:106AF00046FFE0B9FFF72AFF0F48006940F0100099
:106B00000D4908610846006940F0400008612570A1
:106B10004FF44050FFF733FF18B9FFF724FF00B1DF
:106B200001260548006920F020000349086130462D
:106B300070BD00002301674500200240AB89EFCD06
:106B4000F0B503461446254D05EB8322244DAD696F
:106B50009E1C0127B7403D43214EB56100201AE03D
:106B600001F00105ADB1C50852F825504607F70EF2
:106B70000F26BE40B543C60842F82650C50852F855
:106B800025504607F60E04FA06F63543C60842F8C5
:106B900026504910401C0029E2DCF0BD02460B469D
:106BA0000E4800EB8221C8681843C860C86880B2EC
:106BB00070470A4B03EB8022D3688B43D360704746
:106BC000064B03EB8022D3684B40D36070470246EC
:106BD000024800EB82239868084070470008014093
:106BE00000100240002107E0052101E04A1E91B299
:106BF0000029FBDC421E90B20028F5DC704710B57E
:106C00000322C0210120FFF79BFFC0210120FFF7D5
:106C1000C5FF032220210120FFF792FF2021012040
:106C2000FFF7BCFF10BD10B580210120FFF7B6FFB4
:106C300040210120FFF7B2FF0220FFF7D3FF8021A0
:106C40000120FFF7B6FF0220FFF7CCFF4021012013
:106C5000FFF7AFFF10BD10B580210120FFF7A9FF9E
:106C60000220FFF7BFFF40210120FFF797FF02201E
:106C7000FFF7B8FF80210120FFF790FF0220FFF708
:106C8000B1FF10BD10B5044640210120FFF791FF70
:106C90000220FFF7A7FF24B180210120FFF77EFF2C
:106CA00003E080210120FFF784FF0220FFF79AFF15
:106CB00040210120FFF772FF0220FFF793FF4021E0
:106CC0000120FFF776FF10BD10B5002408228021B7
:106CD0000120FFF735FF80210120FFF75FFF022031
:106CE000FFF780FF40210120FFF758FF0220FFF748
:106CF00079FF10E0601C80B20446B0F5FA7F0ADD2F
:106D0000032280210120FFF71BFF80210120FFF7D4
:106D100045FF002010BD80210120FFF758FF00280B
:106D2000E8D140210120FFF744FF0220FFF75AFF7E
:106D3000032280210120FFF703FF80210120FFF7BC
:106D40002DFF0220FFF74EFF0120E3E770B5044658
:106D500040210120FFF72DFF0220FFF743FF002510
:106D600020E004F0800020B180210120FFF716FF11
:106D700003E080210120FFF71CFF6006040E0220C3
:106D8000FFF730FF40210120FFF708FF0220FFF747
:106D900029FF40210120FFF70CFF0220FFF722FF0F
:106DA000681CC5B2082DDCDBFFF78EFF70BD70B527
:106DB00006460024082280210120FFF7C1FE802121
:106DC0000120FFF7EBFE00251BE040210120FFF72B
:106DD000F0FE0220FFF706FF40210120FFF7DEFE54
:106DE0000220FFF7FFFE6006040E80210120FFF75E
:106DF000EEFE08B1601CC4B20220FFF7F3FE681C6F
:106E0000C5B2082DE1DB40210120FFF7D2FE0220B0
:106E1000FFF7E8FE032280210120FFF791FE802189
:106E20000120FFF7BBFE0220FFF7DCFE3046FFF734
:106E300029FF204670BD70B505460C4600BFFFF720
:106E4000F2FE2846FFF782FF10B9601E041EF6D13D
:106E5000FFF701FF0CB1012070BD0020FCE72DE918
:106E6000F04107460E4615461C46FFF7DCFE384645
:106E7000FFF76CFFF0B13012FFF768FFD0B1F0B24E
:106E8000FFF764FFB0B1FFF7CEFE47F00100FFF758
:106E90005DFF78B106E00020FFF789FF05F8010BE0
:106EA000601EC4B2012CF6DC601EC4B20120FFF7E4
:106EB0007EFF2870FFF7CFFE14B90120BDE8F081F6
:106EC0000020FBE72DE9F04107460D4616461C461B
:106ED00020210120FFF76DFEFFF7A5FE3846FFF7E2
:106EE00035FF98B12812FFF731FF78B1E8B2FFF70C
:106EF0002DFF58B107E016F8010BFFF727FF00B987
:106F000003E0601EC4B2002CF5DC00BFFFF7A3FE57
:106F100020210120FFF742FE14B90120BDE8F081D5
:106F20000020FBE72DE9F04107460D4616461C46BA
:106F300020210120FFF73DFEFFF775FE3846FFF7E1
:106F400005FF90B12812FFF701FF70B1E8B2FFF71B
:106F5000FDFE50B106E03046FFF7F8FE00B903E051
:106F6000601EC4B2002CF6DC00BFFFF774FE2021C7
:106F70000120FFF713FE14B90120BDE8F0810020C5
:106F8000FBE770477047704770B505460C46FFF742
:106F9000DDFC03E0A4F5806405F580652846FFF775
:106FA00007FD10B1B4F5806FF4D8FFF7D5FCB4F548
:106FB000806F01D8012070BD0020FCE72DE9F04171
:106FC00006460C46174604F0010000B1641CFFF7AA
:106FD000BDFC3A4621463046FFF731FD0546FFF736
:106FE000BBFC2846BDE8F081034604E01868106049
:106FF000121D1B1D091F0029F8D1012070472DE922
:10700000F04FADF2044D80460D46924605F001006A
:1070100000B16D1CFFF79AFCB8F1006F02D3B8F114
:10702000016F04D300200DF2044DBDE8F08FA8F1EC
:10703000006B4FEA9B26CBF30909C9F58064A54292
:1070400000D8ACB24DE04FF0006101EB86206A46FB
:107050004914FFF7C9FF002708E009EB07001DF8F6
:107060000000FF2800D003E0781C87B2A742F4DBC1
:1070700000BFA7421EDA4FF0006101EB8620FFF748
:1070800097FCCDF80004002707E01AF8070007EB8B
:1070900009010DF80100781C87B2A742F5DB4FF01B
:1070A000006101EB86206A464914FFF7C8FCCDF861
:1070B000000406E0524621464046FFF7C0FCCDF8EA
:1070C0000004A54200D10DE0761C4FF00009A24457
:1070D000A0442D1BB5F5806F02D94FF4806400E009
:1070E000ACB2B0E700BFFFF737FCDDF800049AE769
:1070F0001CB5274903C9CDE900012648406940F085
:107100004000244948612448806840F00100224939
:1071100088600846007940F0FF0008711F48006849
:107120001F4988421CD01D49083908681A498968D6
:1071300041F00101184A91601A4909681160194922
:10714000091D096811601749083109681160114665
:107150000860096801916A4608211048FFF74FFF4F
:107160001CBD4FF0FF3070474FF4806070470D48F2
:107170000838008870470B49096801600949091DF2
:10718000096841600749083109688160704700005B
:107190004C1E010800100240003002403C04000870
:1071A000A542BD5AE8F7FF1F08B1012100E0002108
:1071B000FE4A11707047FE487047FE4800787047DD
:1071C00070B505460C464FF480510120FFF7F1FCE5
:1071D000284600F09FFC204600F09CFC06464FF439
:1071E00080510120FFF7DAFC304670BD10B5F2483F
:1071F000006820F48060F0490860022289150020B0
:10720000FFF79EFC0222D1020120FFF799FC042225
:1072100011020120FFF794FC042251020120FFF724
:107220008FFC4FF480610120FFF7B8FC4FF4006140
:107230000120FFF7B3FC00F098FC042000F0E8FC0C
:1072400010BD0120DD490870704710B50521872069
:10725000FFF7B6FF02218E20FFF7B2FF0221882040
:10726000FFF7AEFF00218820FFF7AAFF132185203A
:10727000FFF7A6FF80218620FFF7A2FF0021032051
:10728000FFF79EFF00210420FFF79AFFCA4800681D
:1072900040F48060C849086010BD10B5C648006859
:1072A00020F48060C449086000218E20FFF788FF29
:1072B00001218720FFF784FF00218520FFF780FF51
:1072C00000218620FFF77CFF00210320FFF778FFD5
:1072D00000210420FFF774FF022004F04BFB10BDD7
:1072E00010B50446B64A2146022004F051FB10BDF9
:1072F00010B500212620FFF763FF0446B14800784F
:10730000A04203DAAF480078201A02E0AD480078C6
:10731000001B08284EDA6410AA48007804EB6000CD
:10732000A84908700846C078401CC0B2C87014282C
:1073300060DD084600780A2803DB08460078DC2870
:1073400003DD0420FFF7CCFF30E09E4800781430C6
:107350009849087008460178A720FFF731FF9A483E
:107360000068F8B100F0B8FD97490968884205D275
:1073700000F0B2FD94490968081A04E000F0ACFD81
:1073800091490968401A9149884206D20420FFF7C2
:10739000A7FF00208C49086008E000F09DFD8A49A5
:1073A000086003E000F098FD8749086000208849E4
:1073B000086010BD83484078A04203DA81484078D5
:1073C000201A02E07F484078001B32280DDA7D4801
:1073D0008078401CC0B27B49887004280ADD0846CA
:1073E00004700020C870887004E076484470002063
:1073F0007449887076480068401C75490860B0F58B
:10740000167F06D9002008600420FFF769FF0020DE
:10741000CFE70120CDE710B5FFF7E8FE4FF480512C
:107420000120FFF7BBFB4FF480710020FFF7B6FB94
:10743000022004F09FFA4FF480710020FFF7B9FB9F
:10744000322004F097FA00210320FFF7B9FE002153
:107450000420FFF7B5FE80218720FFF7B1FE022050
:1074600004F088FA00218720FFF7AAFE002185207A
:10747000FFF7A6FE00218620FFF7A2FE00210320D1
:10748000FFF79EFE00210420FFF79AFE7921892054
:10749000FFF796FE06218A20FFF792FEEA218B2055
:1074A000FFF78EFEEA218C20FFF78AFEFC218D205B
:1074B000FFF786FE00218E20FFF782FE4548017807
:1074C0009C20FFF77DFE434841789D20FFF778FE22
:1074D000404881789E20FFF773FE3E48C1789F2088
:1074E000FFF76EFE3B480179A020FFF769FE39489F
:1074F0004179A120FFF764FE36488179A220FFF789
:107500005FFE3448C179A320FFF75AFE3148017A63
:10751000A420FFF755FE2F48417AA520FFF750FE23
:107520002C48817AAA20FFF74BFEAC21B020FFF750
:1075300047FE0021B220FFF743FE0221B320FFF7F0
:107540003FFE1021B420FFF73BFE2821B520FFF7B6
:1075500037FE2D21B620FFF733FED421B720FFF7E9
:107560002FFE0021B820FFF72BFE0021B920FFF7E6
:1075700027FE4221BA20FFF723FE4521BB20FFF75B
:107580001FFE5321BC20FFF71BFE5421BD20FFF737
:1075900017FE4221BF20FFF713FE4521C020FFF751
:1075A0000FFE5321C120FFF70BFE15E0170000204E
:1075B000DC0100201600002000040140150000201E
:1075C000177400082000002028000020A068060092
:1075D00024000020541E01085421C220FFF7F0FDB2
:1075E000FF21C320FFF7ECFDFF21C420FFF7E8FDDA
:1075F000FF21C520FFF7E4FDFF21C620FFF7E0FDD6
:10760000FE48C17AD820FFF7DBFDFC48017BE9206A
:10761000FFF7D6FDF948417BEE20FFF7D1FDF74893
:10762000817BEF20FFF7CCFDF448C17BF020FFF712
:10763000C7FDF248017CF120FFF7C2FDEF48417C15
:10764000F220FFF7BDFD5221F520FFF7B9FD05F04F
:107650008BFE493800EB80004006040E2146F920DD
:10766000FFF7AEFD0A21FA20FFF7AAFD0021F32063
:10767000FFF7A6FD0021F420FFF7A2FDDF48C17C43
:10768000F620FFF79DFDDD48017DF720FFF798FD0F
:107690000721ED20FFF794FDD9480178A720FFF7D7
:1076A0008FFDD84B4FF4C8720021032005F044FA37
:1076B0001E21FC20FFF784FD0C21FD20FFF780FD3B
:1076C0003221FE20FFF77CFD01220A21104600F046
:1076D000F7FA022328220021184600F0CFFACA4800
:1076E000006820F48060C8490860FFF7D6FDFFF706
:1076F000ACFDFFF7A6FD10BD10B503218820FFF7F4
:107700005FFD08218820FFF75BFD01218E20FFF738
:1077100057FD10BD2DE9F04106460C469046002568
:10772000FFF7BBFDFFF7E8FF2146BE20FFF748FD4E
:107730001DE04FF4805503E0142004F00FF96D1E96
:1077400000210320FFF73CFD00F0200008B9002DC8
:10775000F2D1002707E016F8011BFF20FFF730FDEC
:10776000601EC4B27F1C322F01D2002CF3D1002C3A
:10777000DFD109218720FFF723FD4FF4C87004F003
:10778000EDF84FF4805506E0681E051E03D1042075
:10779000FFF7A6FD08E000210320FFF711FD00F030
:1077A000040008B9002DEFD100BFFFF776FDFFF709
:1077B0004CFDBDE8F0812DE9F04105460F462C4611
:1077C00004F11206322F2FDC204607F03EFA10B1EA
:1077D0000020BDE8F081E07CB2280FD1F078BB2812
:1077E0000CD104F034FBE168884207D13079642879
:1077F00004DA864801783079854A115404F027FB71
:10780000E16888420AD004F025FB8046804810F8E1
:107810000800401C7E4901F8080000BF207D173099
:10782000C1B2204607F0E9F90120D2E72DE9F04F77
:1078300091B080460F464FF000094FF0010AB1E0C9
:107840004846411C01F0FF09052806DD0520FFF729
:1078500047FD00206F490870ACE000210320FFF7CE
:10786000AFFC044600210420FFF7AAFC054605F002
:10787000800028B100212620FFF7A2FC6349087090
:1078800004F0010018B100206249087092E004F091
:10789000100020B35F48007818B9404603F0C8FED6
:1078A000824600260BE000217F20FFF789FC8346FB
:1078B0005946404604F055F98246701CC6B2322E35
:1078C000F1DB54480078CD2803DD002051490870D1
:1078D00070E05048007832304E49087000BF04F024
:1078E000020000285ED000214B20FFF769FC04460F
:1078F00011E000217F20FFF763FC4649097832221E
:1079000091FBF2F302FB131101AA50544148007895
:10791000401C404908703F480078A042E9DB172C22
:107920002EDB3D48007860B1214601A8FFF743FFF8
:1079300038B9002037490870FFF787FC11B0BDE85F
:10794000F08F322C03DC404603F072FE8246322078
:1079500094FBF0F100FB114028B1322094FBF0F1D0
:1079600000FB114000E032200646324601A94046A5
:1079700004F084F88246404603F062FE824606E048
:10798000224601A9384603F0D4FE00F0FF0A002089
:1079900020490870BAF1000F04D10022032102200F
:1079A00003F0F6FF4FF480610120FFF710F9002883
:1079B0003FF446AF00BF1748007808B9FFF745FC11
:1079C00000BFBBE710B515491548FFF72FFF4FF46F
:1079D00080600D491431086010BD10B5044611488F
:1079E000008850B9082C00D3012400F075FA0E4924
:1079F00031F81410B0FBF1F218E01CE0541E01083D
:107A000016000020F172000800040140140000205C
:107A1000DC0100201800002017000020E8130020DF
:107A2000A80900201E0000206A1E010801FB1200A8
:107A3000801C324908804FF400610120FFF7C7F82D
:107A4000F0B92E480088401E80B22C49088070BBD7
:107A50002B480088401C80B229490880642808DD32
:107A600000200880274B4FF4C8720021032005F046
:107A700063F800202149088023490880012010BDB7
:107A800000201E4908801E4908801F480088401CAD
:107A900080B21D490880B0F57A7F08DD002008809B
:107AA000184B4FF4C8720021032005F045F8002060
:107AB000E5E770B506460C461546144800780128DF
:107AC00019D12846FFF789FFA8B100200F49087097
:107AD0000F4BC8220021084605F02EF8172C03DBB7
:107AE000B61DA4F10C00C4B22A4621463046FFF769
:107AF00011FE012070BD0020FCE700001E000020E8
:107B00001C000020F17200081A000020150000205F
:107B1000437200080146002208E01046531C9AB246
:107B20004FF6FE73984201DB0020704743480088FF
:107B300000F002000028F0D04048001D0180002223
:107B400008E01046531C9AB24FF6FE73984201DBD0
:107B50000020EAE73948008800F001000028F0D052
:107B60003648001D0088C0B2DFE700B53448006920
:107B700040F48040324908610846006920F48040A2
:107B800008610846806940F0080088610846C069BD
:107B900040F48040C8612B480068C0F313002949B5
:107BA00008600846006828490843264908602548B7
:107BB0000830006840F460402249083108601F48DE
:107BC000083800881D49083908800846008840F4B4
:107BD000007008800846008840F4807008800846DD
:107BE000008840F0040008800846008808800846A5
:107BF000008840F018000880084600880880084681
:107C0000008840F040000880FF20FFF783FF00BDA0
:107C100000F007000949083909884FF6C77211407A
:107C2000064A083A11801146098841EAC0011180CC
:107C30001146098841F04001118070470838004022
:107C400000100240040C01400000B0BB484A0A404A
:107C50000243484B1A6070470146072323EA01029A
:107C60001202444B1B1D18684FF6FF031840424B8D
:107C7000184310433F4B1B1D186070472DE9F0411E
:107C80000746884614461D4600262846FFF7E4FFAF
:107C9000C5F1040007FA00F60F20284100EA0800A9
:107CA000064336013548065504F01F01012088407F
:107CB0006111890001F1E021C1F80001BDE8F08106
:107CC00070B504460B46CE1701EB9676C6F38700D7
:107CD000CE1701EB9676B610A1EB8606B606350EEA
:107CE000274B9B6943F00103254EB3614FEAB6333E
:107CF00053F820300F26AE40B343224E46F82030D2
:107D0000334653F8203004FA05F61E431D4B43F862
:107D100020601D4B1B6801268E4033431A4E336092
:107D200002F0010343B1184B0C331B6801268E404F
:107D30003343154E0C36336002F0020343B1124B4D
:107D400008331E6801238B401E430F4B08331E600F
:107D500070BD70B50446254620680C490840B0F156
:107D6000005F04D12868FEF725FC6868804770BD75
:107D700080FFFF1F08ED00E00000FA0500E400E0CE
:107D80000010024008000140000401400000FE2FE6
:107D900010B506F0A1FF00F07FF8FFF7A9F9FEF794
:107DA0002EFFFFF738FB10BD014636480068364A03
:107DB00090422DD13348001D0068B0F1FF3F27D01D
:107DC0003048001D006818B32E48001D0068B0F14F
:107DD000443F1DD02B48001D0068B0F1883F17D0EC
:107DE0002848001D0068294A904211D02548001DEE
:107DF0000068244A08321268D243904208D12148D0
:107E0000001D006888420AD01E48001D00687047A7
:107E10001F480068884202D01D480068F7E700202C
:107E2000F5E7184800681849884229D11548001D0F
:107E30000068B0F1FF3F23D01248001D0068F8B180
:107E40001048001D0068B0F1443F19D00D48001DD6
:107E50000068B0F1883F13D00A48001D00680B4944
:107E600088420DD00748001D00680649083109689E
:107E7000C943884204D10348001D00680549486091
:107E800070470000300400085A3CC3A542455354D3
:107E9000F0F7FF1FB81900201CB5002001900090DA
:107EA000694601A8FEF797FC4FF0E020006920F03A
:107EB00004004FF0E02108614FF4FA510198B0FB43
:107EC000F1F04FF0E0214861002088610320086153
:107ED00000200F4908601CBD0D48006870470C4821
:107EE00000680C49086070470A480068704710B580
:107EF000074800680849B0FBF1F201FB1200044991
:107F0000086008460068401C086004F021FF10BDAE
:107F10002C000020300000200084D71710B5082264
:107F200020210020FEF70CFE20210020FEF736FE67
:107F300000202649086010BD10B500220921244800
:107F400000F074F910BD10B500243BE02148005D3D
:107F5000622835D11F49601C085C652830D1A01CFF
:107F6000085C73282CD1E01C085C742828D1201DE3
:107F7000085C662824D1601D085C752820D1A01DEE
:107F8000085C2D281CD1E01D085C742818D104F170
:107F90000800085C652813D104F10900085C732807
:107FA0000ED104F10A00085C742809D1002008559C
:107FB000AFF27B034FF4FA720021084604F0BCFDD7
:107FC000601CC4B2642CC1DB10BD00003400002072
:107FD000721E01088908002010B5044622460821B7
:107FE000C80206F06BFC10BD10B504464FF41650E5
:107FF000206000202071082060710120A0712046BF
:10800000FFF7EAFF10BD01460868B0F5164F2DD006
:1080100011DCB0F5165F26D006DCB0F5166F20D067
:10802000B0F5965F28D11DE0B0F5615F1CD0B0F5CA
:10803000964F21D119E0B0F5E13F1AD00ADCA0F546
:108040002040A0F5FF6090B1A0F54050A0F532703F
:1080500090B90DE0B0F5FA3F0CD0B0F57A3F0BD1F6
:1080600009E000BF00BF00BF00BF00BF00BF00BFEE
:1080700000BF00BF00BF01E00020704700BF0879CB
:1080800020B1012803D0022803D101E000BF00BFC6
:1080900001E00020F1E700BF4879082802D0092854
:1080A00002D100E000BF01E00020E6E700BF8879D0
:1080B000012804D0022803D0032803D101E000BF27
:1080C00000BF01E00020D8E700BF0120D5E710B5D0
:1080D000044622460821C80206F007FC10BD1CB564
:1080E00004466846FFF7F3FF6846FFF78CFF10B9B8
:1080F0006846FFF779FF6F48006940F400306D492A
:1081000008610846006920F4003008610846C0692B
:1081100040F40030C8610B2204210020FEF710FD5E
:10812000082211460020FEF70BFD634860430099CA
:10813000B0FBF1F0614908809DF80400012808D0E7
:10814000022814D1081D008840F40070091D088021
:108150000EE05A48001D008840F480605749091D10
:1081600008800846008840F48050088000E000BF86
:1081700000BF9DF8050008280BD0092808D14F48FA
:10818000001D008840F480504C49091D088001E022
:1081900000BF00BF00BF9DF80600012816D00228CE
:1081A0000AD0032811D145480830008840F44050D7
:1081B0004249083108800AE040480830008840F40D
:1081C00000503E490831088001E000BF00BF00BFF9
:1081D0003A48001D008842F20C0108433749091D46
:1081E00008800846008840F02000088002232622EC
:1081F00019461846FFF742FD1CBD0246002100E06B
:10820000491C2E480838008800F0400018B944F690
:1082100020608142F4D344F62060814204D2274892
:10822000001F0280012070470020FCE770B5044663
:108230000D46164607E014F8010BFFF7DEFF10B9F4
:108240002420FFF74CFF281EA5F10101CDB2F2D189
:10825000012070BD10B504464FF416502060002078
:108260002071082060710120A0712046FFF7B4FE44
:1082700010BD10B511480838008800F02000C0B1CA
:108280000F48007864280ADA0C49091F0988CAB225
:108290000B490878411C0A4B19700A490A540A21F3
:1082A000094800F0E8FC0948007840F0010007495F
:1082B000087010BD0010024040420F00084400400A
:1082C0003C000020890800205C00002038000020CD
:1082D00010B54AF6AA201A49086002210120FEF7CB
:1082E0006FFC10BD70B505460C4645F2555014495B
:1082F00008600846456084604AF6AA2008604CF68B
:10830000CC400860022211460120FEF719FCAFF2B2
:108310003F034FF448720021022004F00DFC70BDB1
:1083200010B5AFF2530004F079FC10BD10B504464F
:10833000042202210120FEF703FC012010BD0000F1
:108340000030004004F09EFBFFF722FD4FF4FA617D
:108350000520FFF7C7FF03F0E5F8FEF712FEFEF772
:10836000DDFAFFF7DBFD00F019F800F035FB09E05E
:108370000549064802F0B4FF0549064802F0B0FF7F
:1083800004F0B1FCF4E70000C8110020A8090020A7
:1083900008150020E81300200220704710B50224C1
:1083A0000B49022005F0AEFA0FE0601EC0B2044691
:1083B00000EB8000074951F8200030B104EB840045
:1083C0000A4652F8201020468847002CEDD110BDF7
:1083D000400200207C1E010870B503460C46FF25B4
:1083E000FF2600210DE0585C80EA0502104810F8D5
:1083F000120080EA06050E4830F812000612481CEA
:1084000081B2A142EFDB46EA052070BD30B50246DD
:108410000D12CCB285EA0203054810F8130080EA79
:108420000405034830F81300041244EA052030BD67
:10843000A41E010810B5052003F090FA10BD70B518
:1084400004460D462E4622E09148006820F0800048
:108450008F49086004F0800028B10846006840F0A9
:108460004000086005E08A48006820F04000884924
:1084700008606006040EFFF7DDFF8548006840F0E5
:10848000800083490860FFF7D5FF701EC6B2002E3A
:10849000DADC70BD10B504467E48006820F00100AB
:1084A0007C490860FFF7C6FF03218020FFF7C7FF64
:1084B00009212046FFF7C3FF7648006840F001001D
:1084C00074490860FFF7B6FF10BD10B50322012103
:1084D0000846FEF735FB032280210020FEF730FB23
:1084E000032240210020FEF72BFB6948006840F082
:1084F0004000674908600846006840F08000086056
:108500006448006840F00100624908602920FFF7D4
:10851000C1FF0120FFF7BEFF0320FFF7BBFF10BD27
:1085200010B50220FFF7B6FF0020FFF7B3FF10BD24
:1085300070B504460D462E4621E05548006820F0EF
:1085400080005349086004F0010028B10846006823
:1085500040F04000086005E04D48006820F0400011
:108560004B4908606410FFF765FF4948006840F018
:10857000800047490860FFF75DFF701EC6B2002EFD
:10858000DBDC70BD70B504460D464248006820F043
:10859000010040490860FFF74DFF0321A020FFF7CD
:1085A0004EFFA106080E0621FFF749FF04212846C9
:1085B000FFF7BEFF3748006840F00100354908600A
:1085C000FFF738FF70BD2DE9F04104460D46164611
:1085D000B0463048006820F001002E490860FFF7DF
:1085E00029FF0321A020FFF72AFFA106080E06217C
:1085F000FFF725FF00270FE008F0010020B104215C
:108600000120FFF795FF03E004210020FFF790FF12
:108610004FEA6808781CC7B2AF42EDDB1D4800681E
:1086200040F001001B490860FFF704FFBDE8F0813E
:1086300070B505460C46012D0BD11748005D0111A0
:108640000420FFF79FFF1448015D0520FFF79AFF04
:108650001CE0022D0BD11048005D01110620FFF730
:1086600091FF0D48015D0720FFF78CFF0EE0032D01
:108670000CD10A48005D012242EA20111046FFF7A2
:1086800081FF0648015D0220FFF77CFF70BD0000FE
:108690000C0801400C0C0140A4200108B82001087E
:1086A00010B500240AE03D4A02EB840251883B4A9F
:1086B00012F824000822FEF743FA641C062CF2D3B9
:1086C00010BD3748007800F0FE003549087070474B
:1086D00070B50624002527E0641E6D002F4A02EBCA
:1086E000840251882D4A12F82400FEF770FAD8B996
:1086F0002B48007800F00100B0B902210020FEF7FD
:1087000066FA08B16D1C0FE000F05CF824480078B0
:1087100040F0010022490870AFF259034FF49672FD
:108720000021084604F008FA002CD5D1284670BD77
:1087300010B5FFF7CDFF1B490978884217D000F02C
:1087400041F819480078012809DD174800785028B9
:1087500005DC0020144908701248007810BD002084
:1087600011490870FFF7B4FF0E49087013E00D4877
:10877000007880B10C480078401CC0B20A490870EB
:108780005F2808DD084600780F38087000F01AF8F6
:1087900004480078E2E70020E0E70000C22001087A
:1087A00044000020450000204600002010B50221B2
:1087B0000020FEF7FEF910BD10B502210020FEF7E3
:1087C000EDF910BD10B5FFF7F7FFAFF21F0342F24E
:1087D00010720021084604F0AFF910BD10B5022256
:1087E00011460020FEF7ACF9FFF7ECFF10BD10B505
:1087F000FFF7E2FFAFF24B0350220021084604F0DE
:108800009BF910BD70B504460D46632C01DC012DAB
:1088100000DD70BD65B90A2094FBF0F08749085C63
:10882000012141EA201631460420FFF7ABFE09E0A2
:108830000A2094FBF0F08149085C061131460420BF
:10884000FFF7A0FE0A2094FBF0F07C490E5C314655
:108850000520FFF797FE012D0ED10A2094FBF0F1C1
:1088600000FB11407549085C012141EA20163146A0
:108870000620FFF787FE0BE00A2094FBF0F100FBD7
:1088800011406E49085C061131460620FFF77AFE5A
:108890000A2094FBF0F100FB114068490E5C314660
:1088A0000720FFF76FFE00BFB3E710B50446042CA6
:1088B00000DD10BD042C0FD16148007840F00200AB
:1088C0005F490870084601780020FFF75BFE002131
:1088D0000320FFF757FE0FE05948007800F0FD0035
:1088E00057490870084601780020FFF74BFE5548AD
:1088F000015D0320FFF746FE00BFDAE710B504462E
:10890000032C00DD10BD5048015D1F20FFF73AFE2B
:1089100000BFF7E710B505210020FFF733FE10BDBB
:1089200010B504465CB14648007840F00800444960
:108930000870084601780020FFF724FE0AE040484E
:10894000007800F0FE003E490870084601780020DB
:10895000FFF718FE10BD10B5044644B900210120F0
